:020000040800F2
:1000000000040020C10100088123000881230008AA
:10001000A11600088123000881230008812300081D
:100020008123000881230008812300084142000841
:1000300081230008812300088123000881910008A2
:1000400081230008E16E000871700008C17000088B
:100050008123000881230008216C0008716C0008CE
:10006000C16C0008116D0008616D0008F15E0008A8
:10007000415F0008915F0008E15F000831600008FF
:1000800081600008D16000086169000861720008A1
:10009000D17200088173000831740008B16D000846
:1000A0008123000881230008E18B000881230008D8
:1000B000418D0008818D0008C18D00083180000845
:1000C0007181000881230008812300088123000832
:1000D0008123000881230008812300084192000841
:1000E000416E0008316F0008816F0008218C000804
:1000F0008123000881230008812300082161000872
:1001000081230008C1750008018E000881230008C2
:100110008123000881230008A18B000881230008A7
:1001200071610008C1610008116200086162000885
:10013000B162000881230008D16F00088123000804
:10014000812300088123000881230008E18700083B
:100150000163000851630008A163000881230008BF
:1001600081230008812300088123000881230008DF
:1001700021700008812300089114000881230008E1
:1001800081230008812300088123000881230008BF
:1001900081230008812300088123000881230008AF
:1001A000812300088123000881230008812300089F
:1001B000812300088123000881230008812300088F
:1001C00072B62E4880F3098840F20000CCF200009D
:1001D0004EF63471CEF20001086040F20000C0F229
:1001E000F0004EF68851CEF2000108604FF000009A
:1001F000E1EE100A4EF63C71CEF2000108600620D6
:1002000080F31488BFF36F8F09F00AF94FF055306F
:100210001B491C4A91423CBF41F8040BFAE71A49BA
:10022000164A91423CBF41F8040BFAE71749184AB5
:10023000184B9A423EBF51F8040B42F8040BF8E702
:1002400000201549154A91423CBF41F8040BFAE7DA
:1002500002F07EF8124C134DAC4203DA54F8041B42
:100260008847F9E700F0D4FF0F4C104DAC4203DA99
:1002700054F8041B8847F9E702F07AB80008002018
:10028000000000200004002000040020A8DB00087B
:1002900000080020EC110020F0110020282500208B
:1002A000C0010008C0010008C0010008C00100082A
:1002B0002DE9F04F2DED108AC1F80CD0D0F80CD0FC
:1002C000BDEC108ABDE8F08F02F09AF903F058F9FE
:1002D000002383F311882846A047002002F020FF66
:1002E00003F036F902F06CF902F08AFD02F088F9A9
:1002F00003F046F900DFFEE7000000000000000008
:1003000081F0004102E000BF83F0004330B54FEAC6
:1003100041044FEA430594EA050F08BF90EA020F33
:100320001FBF54EA000C55EA020C7FEA645C7FEAC6
:10033000655C00F0E2804FEA5454D4EB5555B8BFE9
:100340006D420CDD2C4480EA020281EA030382EA5A
:10035000000083EA010180EA020281EA0303362DEC
:1003600088BF30BD11F0004F4FEA01314FF4801CBF
:100370004CEA113102D0404261EB410113F0004FD1
:100380004FEA03334CEA133302D0524263EB430388
:1003900094EA050F00F0A780A4F10104D5F1200E26
:1003A0000DDB02FA0EFC22FA05F2801841F1000181
:1003B00003FA0EF2801843FA05F359410EE0A5F155
:1003C00020050EF1200E012A03FA0EFC28BF4CF086
:1003D000020C43FA05F3C01851EBE37101F000453C
:1003E00007D54FF0000EDCF1000C7EEB00006EEB49
:1003F0000101B1F5801F1BD3B1F5001F0CD34908D3
:100400005FEA30004FEA3C0C04F101044FEA445229
:1004100012F5800F80F09A80BCF1004F08BF5FEAB0
:10042000500C50F1000041EB045141EA050130BD90
:100430005FEA4C0C404141EB010111F4801FA4F133
:100440000104E9D191F0000F04BF01460020B1FA88
:1004500081F308BF2033A3F10B03B3F120020CDAC0
:100460000C3208DD02F1140CC2F10C0201FA0CF09E
:1004700021FA02F10CE002F11402D8BFC2F1200C03
:1004800001FA02F120FA0CFCDCBF41EA0C019040B9
:10049000E41AA2BF01EB0451294330BD6FEA040402
:1004A0001F3C1CDA0C340EDC04F11404C4F12002ED
:1004B00020FA04F001FA02F340EA030021FA04F3FF
:1004C00045EA030130BDC4F10C04C4F1200220FA56
:1004D00002F001FA04F340EA0300294630BD21FA94
:1004E00004F0294630BD94F0000F83F4801306BF5A
:1004F00081F480110134013D4EE77FEA645C18BF4E
:100500007FEA655C29D094EA050F08BF90EA020FE4
:1005100005D054EA000C04BF1946104630BD91EADC
:10052000030F1EBF0021002030BD5FEA545C05D1DF
:100530004000494128BF41F0004130BD14F580041E
:100540003CBF01F5801130BD01F0004545F0FE4192
:1005500041F470014FF0000030BD7FEA645C1ABFC7
:10056000194610467FEA655C1CBF0B46024650EAFE
:10057000013406BF52EA033591EA030F41F400212A
:1005800030BD00BF90F0000F04BF0021704730B5B0
:100590004FF4806404F132044FF000054FF0000185
:1005A00050E700BF90F0000F04BF0021704730B546
:1005B0004FF4806404F1320410F0004548BF40421B
:1005C0004FF000013EE700BF42004FEAE2014FEA70
:1005D00031014FEA02701FBF12F07F4393F07F4F4B
:1005E00081F06051704732F07F4208BF704793F04E
:1005F0007F4F04BF41F40021704730B54FF4607461
:1006000001F0004521F000411CE700BF50EA010263
:1006100008BF704730B54FF000050AE050EA01020C
:1006200008BF704730B511F0004502D5404261EB7C
:1006300041014FF4806404F132045FEA915C3FF4BD
:10064000D8AE4FF003025FEADC0C18BF03325FEA5A
:10065000DC0C18BF033202EBDC02C2F1200300FA0B
:1006600003FC20FA02F001FA03FE40EA0E0021FA30
:1006700002F11444BDE600BF0000000000000000CD
:1006800070B54FF0FF0C4CF4E06C1CEA11541DBF28
:100690001CEA135594EA0C0F95EA0C0F00F0DEF8F3
:1006A0002C4481EA030621EA4C5123EA4C5350EAD8
:1006B000013518BF52EA033541F4801143F4801329
:1006C00038D0A0FB02CE4FF00005E1FB02E506F0BA
:1006D0000042E0FB03E54FF00006E1FB03569CF00F
:1006E000000F18BF4EF0010EA4F1FF04B6F5007F15
:1006F00064F5407404D25FEA4E0E6D4146EB060687
:1007000042EAC62141EA55514FEAC52040EA5E500F
:100710004FEACE2EB4F1FD0C88BFBCF5E06F1ED8B9
:10072000BEF1004F08BF5FEA500E50F1000041EBF0
:10073000045170BD06F0004646EA010140EA02009D
:1007400081EA0301B4EB5C04C2BFD4EB0C0541EABF
:10075000045170BD41F480114FF0000E013C00F3D4
:10076000AB8014F1360FDEBF002001F0004170BDF8
:10077000C4F10004203C35DA0C341BDC04F1140411
:10078000C4F1200500FA05F320FA04F001FA05F29D
:1007900040EA020001F0004221F0004110EBD3706A
:1007A00021FA04F642EB06015EEA430E08BF20EA96
:1007B000D37070BDC4F10C04C4F1200500FA04F339
:1007C00020FA05F001FA04F240EA020001F00041CB
:1007D00010EBD37041F100015EEA430E08BF20EA3E
:1007E000D37070BDC4F1200500FA05F24EEA020E86
:1007F00020FA04F301FA05F243EA020321FA04F0B5
:1008000001F0004121FA04F220EA020000EBD3706B
:100810005EEA430E08BF20EAD37070BD94F0000F6B
:100820000FD101F00046400041EB010111F4801F9F
:1008300008BF013CF7D041EA060195F0000F18BF50
:10084000704703F00046520043EB030313F4801F8C
:1008500008BF013DF7D043EA0603704794EA0C0F46
:100860000CEA135518BF95EA0C0F0CD050EA41065C
:1008700018BF52EA4306D1D181EA030101F00041D9
:100880004FF0000070BD50EA410606BF1046194601
:1008900052EA430619D094EA0C0F02D150EA01360D
:1008A00013D195EA0C0F05D152EA03361CBF10464E
:1008B00019460AD181EA030101F0004141F0FE41ED
:1008C00041F470014FF0000070BD41F0FE4141F471
:1008D000780170BD70B54FF0FF0C4CF4E06C1CEA71
:1008E00011541DBF1CEA135594EA0C0F95EA0C0F26
:1008F00000F0A7F8A4EB050481EA030E52EA0335E1
:100900004FEA013100F088804FEA03334FF0805501
:1009100045EA131343EA12634FEA022245EA11152E
:1009200045EA10654FEA00260EF000419D4208BFDF
:10093000964244F1FD0404F5407402D25B084FEA8C
:100940003202B61A65EB03055B084FEA32024FF438
:1009500080104FF4002CB6EB020E75EB030E22BF95
:10096000B61A754640EA0C005B084FEA3202B6EB55
:10097000020E75EB030E22BFB61A754640EA5C0004
:100980005B084FEA3202B6EB020E75EB030E22BF94
:10099000B61A754640EA9C005B084FEA3202B6EB95
:1009A000020E75EB030E22BFB61A754640EADC0054
:1009B00055EA060E18D04FEA051545EA16754FEAB6
:1009C00006164FEAC30343EA52734FEAC2025FEAD4
:1009D0001C1CC0D111F4801F0BD141EA00014FF063
:1009E00000004FF0004CB6E711F4801F04BF014334
:1009F0000020B4F1FD0C88BFBCF5E06F3FF6AFAE50
:100A0000B5EB030C04BFB6EB020C5FEA500C50F1DF
:100A1000000041EB045170BD0EF0004E4EEA113162
:100A200014EB5C04C2BFD4EB0C0541EA045170BD69
:100A300041F480114FF0000E013C90E645EA060EAD
:100A40008DE60CEA135594EA0C0F08BF95EA0C0FDB
:100A50003FF43BAF94EA0C0F0AD150EA01347FF423
:100A600034AF95EA0C0F7FF425AF104619462CE7FA
:100A700095EA0C0F06D152EA03353FF4FDAE10465D
:100A8000194622E750EA410618BF52EA43067FF4AE
:100A9000C5AE50EA41047FF40DAF52EA43057FF43E
:100AA000EBAE12E7000000000000000000000000B4
:100AB0004FEA410212F5001215D211D56FF4787386
:100AC000B3EB625212D94FEAC12343F0004343EA29
:100AD000505311F0004F23FA02F018BF4042704704
:100AE0004FF00000704750EA013005D111F000408E
:100AF00008BF6FF0004070474FF00000704700BF24
:100B000053B94AB9002908BF00281CBF4FF0FF3174
:100B10004FF0FF3000F074B9ADF1080C6DE904CE70
:100B200000F006F8DDF804E0DDE9022304B07047C8
:100B30002DE9F047089E04468846002B4BD18A4297
:100B4000154667D9B2FA82F24AB1C2F1200701FA1A
:100B500002F320FA07F7954047EA030894404FEA6A
:100B6000154E230CB8FBFEF71FFA85FC0EFB178809
:100B700043EA084307FB0CF1994209D9EB1807F146
:100B8000FF3080F01B81994240F21881023F2B44D4
:100B90005B1AA4B2B3FBFEF00EFB103344EA03442D
:100BA00000FB0CFCA44509D92C1900F1FF3380F09F
:100BB0000781A44540F2048102382C4440EA0740F2
:100BC000A4EB0C0400271EB1D4400023C6E9004367
:100BD0003946BDE8F0878B4209D9002E00F0EB8042
:100BE0000027C6E9000138463946BDE8F087B3FA68
:100BF00083F7002F47D18B4202D3824200F2FA8062
:100C0000841A61EB030301209846002EE0D0C6E968
:100C10000048DDE702B9FFDEB2FA82F2002A40F0B6
:100C20008F80491B4FEA154E1FFA85F80127B1FB4B
:100C3000FEFC230C0EFB1C1143EA014308FB0CF1E4
:100C4000994207D9EB180CF1FF3002D2994200F219
:100C5000CD808446591AA3B2B1FBFEF00EFB1014EE
:100C600043EA044408FB00F8A04507D92C1900F119
:100C7000FF3302D2A04500F2B6801846A4EB080468
:100C800040EA0C409FE7C7F1200CBB4022FA0CFE63
:100C90004EEA030E01FA07F420FA0CF521FA0CF3E0
:100CA0004FEA1E482543B3FBF8F92C0C08FB193317
:100CB0001FFA8EFA44EA034309FB0AF49C4202FA43
:100CC00007F200FA07F10BD91EEB030309F1FF301D
:100CD00080F087809C4240F28480A9F1020973442D
:100CE0001B1BADB2B3FBF8F008FB103345EA03441D
:100CF00000FB0AFAA24508D91EEB040400F1FF33F9
:100D00006BD2A24569D90238744440EA0940A0FB7D
:100D10000289A4EB0A044C45C2464B4654D351D039
:100D2000002E69D0B1EB0A0564EB030404FA0CFC55
:100D3000FD40FC404CEA0505C6E90054002747E7A2
:100D4000C2F1200320FA03F7954001FA02F021FADC
:100D500003F34FEA154E3843010CB3FBFEF71FFABD
:100D600085F80EFB173341EA034107FB08F38B427A
:100D700004FA02F407D9691807F1FF3C2FD28B421D
:100D80002DD9023F2944CB1A81B2B3FBFEF00EFBF2
:100D9000103341EA034100FB08F38B4207D969187D
:100DA00000F1FF3C17D28B4215D902382944C91AE9
:100DB00040EA07473BE73746304609E70746E7E69C
:100DC0001846FBE64145ABD2B8EB020A69EB0E02CE
:100DD00001381346A4E76046E9E7184695E76746F9
:100DE000D1E781467CE702382C4447E7ACF1020C9E
:100DF0002B442FE7384608E73746E9E600000000B5
:100E0000704700BF0000000000000000000000006C
:100E1000844641EA000313F003036DD1403A41D305
:100E200051F8043B40F8043B51F8043B40F8043BC4
:100E300051F8043B40F8043B51F8043B40F8043BB4
:100E400051F8043B40F8043B51F8043B40F8043BA4
:100E500051F8043B40F8043B51F8043B40F8043B94
:100E600051F8043B40F8043B51F8043B40F8043B84
:100E700051F8043B40F8043B51F8043B40F8043B74
:100E800051F8043B40F8043B51F8043B40F8043B64
:100E900051F8043B40F8043B51F8043B40F8043B54
:100EA000403ABDD2303211D351F8043B40F8043BF4
:100EB00051F8043B40F8043B51F8043B40F8043B34
:100EC00051F8043B40F8043B103AEDD20C3205D304
:100ED00051F8043B40F8043B043AF9D2043208D0FC
:100EE000D2071CBF11F8013B00F8013B01D30B886E
:100EF00003806046704700BF082A13D38B078DD04C
:100F000010F003038AD0C3F10403D21ADB071CBF1D
:100F100011F8013B00F8013B80D331F8023B20F887
:100F2000023B7BE7043AD9D3013A11F8013B00F8C0
:100F3000013BF9D20B7803704B7843708B78837048
:100F40006046704700000000000000000000000044
:100F500090F800F06DE9024520F007016FF0000CF9
:100F600010F0070491F820F040F049804FF00004A1
:100F70006FF00700D1E9002391F840F000F108007C
:100F800082FA4CF2A4FA8CF283FA4CF3A2FA8CF3B4
:100F90004BBBD1E9022382FA4CF200F10800A4FA1B
:100FA0008CF283FA4CF3A2FA8CF3E3B9D1E904236F
:100FB00082FA4CF200F10800A4FA8CF283FA4CF3A6
:100FC000A2FA8CF37BB9D1E9062301F1200182FA60
:100FD0004CF200F10800A4FA8CF283FA4CF3A2FA66
:100FE0008CF3002BC6D0002A04BF04301A4612BA74
:100FF000B2FA82F2FDE8024500EBD2007047D1E977
:10100000002304F00305C4F100004FEAC50514F005
:10101000040F91F840F00CFA05F562EA05021CBFD6
:1010200063EA050362464FF00004A9E700000000F0
:1010300001F0FF01102A2BDB10F0070F08D010F889
:10104000013B013A8B422DD010F0070F42B3F6D18D
:10105000F0B441EA012141EA014122F007047FF0A6
:1010600000070023F0E80256083C85EA010586EAFD
:10107000010685FA47F5A3FA87F586FA47F6A5FA39
:1010800087F68EB9EED1F0BC01F0FF0102F0070245
:1010900032B110F8013B013A83EA010313B1F8D1F0
:1010A0000020704701387047002D06BF35460338D1
:1010B000073815F0010F07D1013015F4807F02BF0A
:1010C000013015F4C03F0130F0BC0138704700BF5B
:1010D0004FF0FF3C06E000BF4FF0010C02E000BF04
:1010E0004FF0010C4DF804CD4FEA410C7FEA6C5CE7
:1010F0004FEA430C18BF7FEA6C5C1BD001B050EA8A
:10110000410C0CBF52EA430C91EA030F02BF90EA74
:10111000020F0020704710F1000F91EA030F58BF33
:10112000994208BF90422CBFD8176FEAE37040F095
:10113000010070474FEA410C7FEA6C5C02D150EA33
:10114000013C07D14FEA430C7FEA6C5CD6D152EAEE
:10115000033CD3D05DF8040B704700BF84461046B3
:1011600062468C461946634600E000BF01B5FFF7B2
:10117000B7FF002848BF10F1000F01BD4DF808ED82
:10118000FFF7F4FF0CBF012000205DF808FB00BF53
:101190004DF808EDFFF7EAFF34BF012000205DF8AD
:1011A00008FB00BF4DF808EDFFF7E0FF94BF0120FA
:1011B00000205DF808FB00BF4DF808EDFFF7CEFFFB
:1011C00094BF012000205DF808FB00BF4DF808ED3A
:1011D000FFF7C4FF34BF012000205DF808FB00BF0B
:1011E0004FEA410C7FEA6C5C02D150EA013C0AD123
:1011F0004FEA430C7FEA6C5C02D152EA033C02D115
:101200004FF0000070474FF00100704700000000F1
:1012100000B50E4B83B01B68019303F071F801F029
:10122000C7F800F0E5F90A4A0A490B4800F0E0FF68
:1012300000F0A6FE00F0F4FE00F0B2FC00F0F0F8C2
:101240004FF47A7001F0F4FEFAE700BF00080020C6
:10125000040800200C080020F0110020000000000D
:1012600000B5084B83B01A680192019A1B689A4234
:1012700005D1054803B05DF804EB01F001B9FFF7B3
:10128000EFFF00BF0008002060CE00080000000053
:1012900007EE900A00B5F8EEE77A234B37EEC00A66
:1012A000F1EE007AB0EEC07A83B0B4EEE77A1A6855
:1012B0000192F1EE10FA2CD41C4A9FED1D7AD2ED6A
:1012C000007A70EE277AF4EEC77AF1EE10FA1BDCA2
:1012D0009FED187AF4EEC77AF1EE10FA1DD5DFED26
:1012E000167A82ED007A9FED157AE0EE077AF1EE3C
:1012F000677AFDEEE77A17EE900A019A1B689A4228
:1013000009D103B05DF804FB82ED007ADFED0C7AC1
:10131000E9E70020F1E7FFF7A3FFB3EE047AC2ED9F
:10132000007A67EE877ADEE700080020FC110020D3
:1013300000009643000096C30080BBC50000164322
:101340000080BB450000000000000000000000001D
:1013500030B52D4C83B022680192012826D0B0B15F
:101360004FF4FA7000F004FC4FF4FA7000F0E8FB60
:101370004FF4FA7000F0FCFB019A23689A421DD1E9
:101380004FF4FA7003B0BDE8304000F0D9BB06203E
:1013900000F066FE9FED1D0AFFF77AFF054640F25A
:1013A0004C439D420CDD40F26220E3E700F058FE22
:1013B0009FED160AFFF76CFF4542F0E7FFF750FF7D
:1013C000A3F698039D42B8BF4FF4C370D2DB07EE7B
:1013D000905A9FED0F7AF8EEE76ADFED0E7AE6EEAF
:1013E000877AFDEEE77A17EE903A18B200F0C0FB6C
:1013F0004FF4FA7000F0A4FB002DB9D0019A2368D5
:101400009A42DBD103B030BD0008002000006643E3
:10141000CDCCCC3D0000FA430000000000000000ED
:1014200000B5044B83B01B6801930120FFF790FFC8
:10143000FBE700BF000800200000000000000000E3
:1014400030B5104D81682B680F4A83B001930B684B
:1014500023F001030B608168946A03E0936A1B1B0D
:10146000C72B09D8086810F00100F7D1019A2B6842
:101470009A4204D103B030BD4FF0FF30F6E7FFF7DA
:10148000EFFE00BF0008002048160020000000000A
:10149000F0B5284D83B02B68019302F021F801F0DC
:1014A0000FF9254B1E69F20715D55A69234C42F0F6
:1014B00001025A612778BB1F012B2AD905226368D4
:1014C00022701B680BB120469847042F27D0022FAB
:1014D00025D003232370B30710D5174A174C53693F
:1014E00043F0020353612378032B1DD063689B688C
:1014F0000622227013B101211048984701F008F923
:10150000019A2B689A4213D103B0BDE8F04002F073
:10151000B7BE019A2B689A420AD103B0F0BD0223EC
:101520002370B307EAD5D8E72046FFF789FFDDE748
:10153000FFF796FE00080020000005500012002072
:101540002DE9F043254E83B034680194042A9DF8B8
:101550002890144605460F46984639D9B9F1000F30
:1015600014BF00224FF08052640002EB0863013C7C
:101570001C4405F00F0527F01F07202383F3118873
:1015800001F0E6FF3D4301F01BF8154B1035DD601F
:101590001C6101F035F801F0F3FF124B1A689A4212
:1015A00004D0996993688A689A420DD3002383F323
:1015B0001188BFF36F8FBFF34F8F019A33689A4240
:1015C0000AD103B0BDE8F083074800F059FFEDE70A
:1015D000064800F055FFC1E7FFF742FE0008002073
:1015E00090ED00E04816002000CF0008E0CE000893
:1015F00030B5224D224C2B68224A85B00393636894
:1016000043F004036360536A43F48033536220233E
:1016100083F3118801F09CFF00F0D2FF17221A4BD0
:10162000E260236100F0ECFF01F0AAFF174B1A689B
:101630009A4204D0996993688A689A4218D3002024
:1016400080F31188BFF36F8FBFF34F8F03231D22E9
:1016500000904FF00051FFF773FF094A536843F0C1
:1016600001035360039A2B689A4205D105B030BD3F
:10167000074800F005FFE2E7FFF7F2FD0008002051
:1016800090ED00E000ED00E0090000104816002099
:1016900000CF000800000000000000000000000073
:1016A00070B51A4D1A4C1B4E0FCD0FC49EB02A6850
:1016B000336822801D93EFF30981682203A8FFF7A6
:1016C000A7FB154B9D6AAA0714D4EB0708D5124B4C
:1016D00008995B6B114A00910D48802108F008FAC7
:1016E0001D9A33689A420FD109481EB0BDE8704078
:1016F00000F0C6BE099A5B6B0092A4F11000084A84
:10170000802108F0F5F9E0E7FFF7AAFDC4CE000854
:10171000141200200008002000ED00E0A0CE000818
:1017200080CE000800000000000000000000000063
:1017300000B51F4B0278196883B00191E2B11D4AD0
:101740004FF4005111834278EAB11A4A4FF48051A4
:1017500011838278F2B1174A4FF480411183C27825
:10176000FAB9144A4FF400415183019A1B689A4216
:101770001CD103B05DF804FB0E4A4FF400515183B5
:101780004278002AE1D10B4A4FF48051518382788C
:10179000002AE0D1074A4FF480415183C278002AE1
:1017A000DFD0044A4FF400411183DEE7FFF758FD14
:1017B00000080020001002400000000000000000AF
:1017C00000B51F4B0278196883B00191E2B11D4A40
:1017D0004FF4007111834278EAB11A4A4FF48071D4
:1017E00011838278F2B1174A4FF400611183C278F5
:1017F000FAB9144A4FF480615183019A1B689A42E6
:101800001CD103B05DF804FB0E4A4FF40071518304
:101810004278002AE1D10B4A4FF4807151838278DB
:10182000002AE0D1074A4FF400615183C278002AB0
:10183000DFD0044A4FF480611183DEE7FFF710FD2B
:10184000000800200010024000000000000000001E
:1018500030B50C4A0C4B116883B04FF40055019120
:101860004FF480544FF400414FF480405D835C831B
:101870005883598301991368994201D103B030BD4F
:10188000FFF7EEFC000800200010024000000000FE
:1018900030B50C4A0C4B116883B04FF400750191C0
:1018A0004FF480744FF480614FF400605D835C837B
:1018B0005883598301991368994201D103B030BD0F
:1018C000FFF7CEFC000800200010024000000000DE
:1018D00010B50B4C0B48236882B09922002101936C
:1018E00003F006F9019A23689A4206D105480021BF
:1018F00002B0BDE8104003F0E3B9FFF7B1FC00BF50
:101900000008002028240020000000000000000043
:1019100010B50B4C0B48236882B09922002101932B
:1019200003F0E6F8019A23689A4206D1054800219F
:1019300002B0BDE8104003F0C3B9FFF791FC00BF4F
:1019400000080020442400200000000000000000E7
:1019500000B5084B83B01A680192019A1B689A423D
:1019600006D10548002103B05DF804EB03F010B97F
:10197000FFF776FC0008002028240020000000006B
:1019800000B5084B83B01A680192019A1B689A420D
:1019900006D10548002103B05DF804EB03F0F8B868
:1019A000FFF75EFC00080020442400200000000037
:1019B00070B51A4C1A4E2378326882B0022B01920D
:1019C000A26811D165781748013505F0070500EBCD
:1019D0008500904763686570013B6360019A3368D6
:1019E0009A4219D102B070BD012B08D00199336819
:1019F000994211D10C4802B0BDE87040104765789B
:101A00000848013D05F0070500EB85009047636835
:101A1000657001336360E1E7FFF722FCAC12002040
:101A200000080020A0CF000890CF000800000000B0
:101A300070B51A4C1A4E2378326882B0012B01928D
:101A4000A26811D165781748013505F0070500EB4C
:101A5000850090476368657001336360019A33685D
:101A60009A4219D102B070BD022B08D00199336897
:101A7000994211D10C4802B0BDE87040104765781A
:101A80000848013D05F0070500EB850090476368B5
:101A90006570013B6360E1E7FFF7E2FB9412002011
:101AA00000080020A0CF000890CF00080000000030
:101AB00030B51F4D85B02B68039340F24C439942DB
:101AC000044626DCA3F69803994211DB4B00002B59
:101AD00029D10370036998474FF47A71039A2B68F0
:101AE0009A421ED1606905B0BDE8304002F0B8BF2F
:101AF000104B02225B42227040F2892293420E492F
:101B000091FBF3F189B207DC0191E36898470199F1
:101B1000E4E7012303702D2101912369984701997E
:101B2000DCE7FFF79DFBE4DD01220270E4E700BF84
:101B30000008002068F7FFFFA086010000000000F9
:101B400000B5084B83B01A680192019A1B689A424B
:101B500006D10146044803B05DF804EBFFF7A8BFC7
:101B6000FFF77EFB00080020941200200000000018
:101B700000B5084B83B01A680192019A1B689A421B
:101B800006D10146044803B05DF804EBFFF790BFAF
:101B9000FFF766FB00080020AC12002000000000E8
:101BA00070B51D4E1D4A1E4B30681E491E4C91607B
:101BB00082B00021D46001901C4C1D481D4D9D60D9
:101BC000117051705160106154611B481B4A1C4DCB
:101BD000D8601C48197059705960C3E90425FFF793
:101BE000A7FD1848FFF7ECFD1749204602F0E8FE74
:101BF000204603F01DF82846144902F0E1FE019A40
:101C000033689A4205D1284602B0BDE8704003F01F
:101C10000FB8FFF725FB00BF00080020AC12002022
:101C20009412002031170008D11800082824002041
:101C300051190008C117000811190008811900087E
:101C40004424002090CF000850CF000810CF000897
:101C50000A490B4B09680B4A82B0202001914021B0
:101C600058834FF4806559834FF400644FF48040EB
:101C700004215D835C8358835183FEE700080020C4
:101C8000000C0240000402400000000000000000C0
:101C900010B51E491E4A0B78106882B0013B0190B6
:101CA000072B0AD8DFE803F012151C1F26290F04A2
:101CB00018480824012304830B7001991368994282
:101CC00021D102B010BD08230B70F6E702230B7080
:101CD000F3E711484FF48054032304830B70ECE7BF
:101CE00004230B70E9E70C484FF480440523048378
:101CF0000B70E2E706230B70DFE706480424072396
:101D000004830B70D9E7FFF7ABFA00BF4016002041
:101D10000008002000100240000402400000000003
:101D200030B50C4B0C4918680C4A83B04FF4804511
:101D300001904FF480504883042408204D8354833D
:101D40005083019A1B689A4201D103B030BDFFF75E
:101D500087FA00BF00080020000402400010024083
:101D60002DE9F04F4E4B4F4A9B694F499961A5B001
:101D700007AE05AD80231768009331462A4600243C
:101D80000CA84A4B2397CDE90766CDE90555CDE967
:101D900009440B9400F044FA0CA9454A4548434CC9
:101DA000454DDFF83481DFF834B1DFF834A100F0BD
:101DB0005FFA04F11C0604F16007A146504601F0E9
:101DC00067FC2A682B69226063602A6A2B6BA26019
:101DD000E3606A686B69226163616A6A6B6BA26126
:101DE000E361AA68AB6922626362AA6AAB6BA26212
:101DF000E362EA68EB6922636363EA6AEB6B2F498B
:101E0000A263E36351F8043F0A6AB142A3EB020301
:101E10000B64F7D1802249460CA800F059FA98F8D3
:101E20000030002BCAD09BF8003033B3012BC5D152
:101E3000DFF8B0C02248614650F8042B51F8043F47
:101E4000B84213440B60F7D11E4A13780133DBB25A
:101E5000642B1370B2D11C495CF8043F1B4A82FB0F
:101E60000302DB17C3EB621341F8043B184B9C459C
:101E7000F2D1002388F80030A0E71946202212484A
:101E8000039307F0E5FD039B12481946202207F053
:101E9000DFFD0C49039B0B7001228BF800208DE7BE
:101EA0004816002000080020C0CF0008481300207A
:101EB00000D00008F0110020E4120020441300209C
:101EC0008813002025130020A81300201F85EB5144
:101ED0004413002028130020241300202613002080
:101EE0002008002024130020000000000000000053
:101EF00070B502691E4D52882B6882B006460C46AA
:101F00001C4801939200002107F0A2FD33695B8811
:101F10005BB1184AA11E002331F8020F42F8040BEE
:101F20003069408801339842F6D8202383F3118822
:101F300001F03EFB00F084FB00F012FC0E488368C9
:101F4000002B0FDD00F09CFB01F04AFB002383F324
:101F50001188019A2B68094901209A42087004D11E
:101F600002B070BD01F0CCFBECE7FFF779F900BFE0
:101F700000080020E4120020200800204016002065
:101F800070B51F4D1F4C2E78236884B0012E03932B
:101F900005D0039A23689A422FD104B070BD002166
:101FA000284602F0C5FA284602F082FB334628464E
:101FB000154A164902F03CFB1549164802F000FD8F
:101FC0004FF496720021134802F092FD002111484F
:101FD00002F076FE0F4802F02BFE31464FF482727B
:101FE0000C4802F085FD0023009340220A4B0B4869
:101FF0004FF41E7100F0C4FFCBE7FFF731F900BFCB
:10200000A41D002000080020C4120020D0CF00082A
:1020100010D000080C240020611D0008C813002007
:1020200030B50C4D0C4A2B680C4C83B00021019349
:10203000012311702370142000F0FAFF2378002B85
:10204000F9D1019A2B689A4201D103B030BDFFF754
:1020500007F900BF000800202613002024130020E9
:1020600000B50A4B83B01A68019207289BBF084A43
:102070001030002052F82000019A1B689A4202D1C9
:1020800003B05DF804FBFFF7EBF800BF0008002089
:1020900048130020000000000000000000000000C5
:1020A00000B5084B83B01A680192019A1B689A42E6
:1020B00005D1054803B05DF804EB01F049BCFFF71A
:1020C000CFF800BF000800202C080020000000000E
:1020D00000B5084B83B01A680192019A1B689A42B6
:1020E00005D1054803B05DF804EB01F069BCFFF7CA
:1020F000B7F800BF000800202C08002000000000F6
:1021000070B50D4C82B0236801930D1E06460DDD9F
:10211000284602F02DF818B90C2333604FF0FF3039
:10212000019A23689A4205D102B070BD034800F0BD
:10213000A7F9EDE7FFF794F80008002050D0000859
:1021400000B5064B83B01A680192019A1B689A4247
:1021500002D103B05DF804FBFFF782F8000800200D
:1021600000B5074B83B01A680192019A1B689A4226
:1021700004D103B05DF804EB01F0EABBFFF770F89F
:102180000008002000000000000000000000000027
:1021900000B5074B83B01A680192019A1B689A42F6
:1021A00004D103B05DF804EB01F00ABCFFF758F866
:1021B00000080020000000000000000000000000F7
:1021C00000B5074B83B01A680192019A1B689A42C6
:1021D00004D103B05DF804EB01F0A2BCFFF740F8B6
:1021E00000080020000000000000000000000000C7
:1021F00010B5084B82B01C68019400240460019C57
:102200001B689C42C0E9011201D102B010BDFFF76A
:1022100027F800BF000800200000000000000000B8
:102220002DE9F0430E4D83B02C6801940446994685
:102230000F46164610304C220021DDF8288007F0AA
:1022400007FCC4F80090019A2B68E6609A42C4E942
:10225000018702D103B0BDE8F083FFF701F800BFAA
:102260000008002000000000000000000000000046
:10227000F0B5144E83B001F1100317463268019295
:102280000446412218460D46002107F0E1FB39467D
:10229000402207F075FC6068FFF762FF236803B116
:1022A000AB652560A068FFF78BFF019A33689A42FF
:1022B00005D1606803B0BDE8F040FFF769BFFEF7E5
:1022C000CFFF00BF00080020000000000000000059
:1022D000F0B51C4E436883B00546934230680190C8
:1022E00006D20020019A33689A4229D103B0F0BD8A
:1022F00014460F46A868FFF733FF22463946286880
:10230000FEF786FD012385F85130E868FFF758FF96
:102310006C6D84B123681868FFF722FF23689D6005
:1023200023685868FFF74CFF23681868FFF730FFF1
:102330006468002CEED1A868FFF72AFF0120D1E7DE
:10234000FEF78EFF000800200000000000000000E3
:1023500000B5064B83B01A680192019A1B689A4235
:1023600002D103B05DF804FBFEF77AFF00080020FD
:10237000024B82B01B680193FEE700BF00080020FB
:1023800000B5044B04481B6883B0019300F078F853
:10239000FEE700BF0008002060D000080000000039
:1023A000024B82B01B680193FEE700BF00080020CB
:1023B000F0B5294E294B3268294885B00024039294
:1023C0009C60D968274A4FF6FF0529400A43DA6026
:1023D000C2682549254D42F08072C2600A6842F009
:1023E00001020A6010202022D87783F8222000F012
:1023F000DFFA00F045FA00F0FBFF01F091FE01F07A
:10240000FFFE01F04DF800F0FBF9402105F5886072
:1024100000F01EFD0127164BC36180F82070A861F3
:1024200000F0A6F884F3118862B6AB69114A9A618C
:102430004FF4C4713A46104B009405F59D6000F0CE
:102440009FFD039A33680D4981619A4201D105B01D
:10245000F0BDFEF705FF00BF0008002000ED00E022
:10246000F0ED00E00003FA05001000E0481600203F
:1024700000040020E0D10008A123000880D000085B
:1024800000B5054B83B01B680193044672B6FFF795
:10249000DFFB024BDC62FEE700080020481600204C
:1024A0002DE9F047DFF890A0224DDAF8003082B035
:1024B000019300F055F9AB6993F8232012B1013A6A
:1024C00083F823205A6ADFF8748001325A6200F0E0
:1024D00047F9AB6AEA6901334245AB6220D09368A1
:1024E000013B9360EC69A668D6B94FF020092368D8
:1024F000E768E660C3F804802368EB6100F0C0F889
:1025000001F06EF886F311882069B84789F31188C5
:1025100001F04EF800F094F8EC69A368002BE6D0C7
:10252000019ADAF800309A4202D102B0BDE8F08791
:10253000FEF796FE481600200008002064160020D2
:1025400010B5094C094A236882B001935168536859
:102550005B1A9842FBD8019A23689A4201D102B0D3
:1025600010BDFEF77DFE00BF00080020001000E057
:1025700000B50E4A0E4B116B186883B0019009B973
:10258000526B4AB1019A1B689A420CD1094803B0B8
:102590005DF804EBFFF774BF019A1B689A4202D101
:1025A00003B05DF804FBFEF75BFE00BF4816002099
:1025B0000008002090D0000800000000000000008B
:1025C00030B50B4C0B4D236B2A6883B001920BB9CD
:1025D000636B13B10848FFF753FF019A2B68012181
:1025E0009A42616301D103B030BDFEF739FE00BFEE
:1025F0004816002000080020C0D00008000000009D
:1026000030B50C4C0C4D236B2A6883B0019253B942
:10261000636B002B07DD019A2B6800219A426163EE
:1026200005D103B030BD0548FFF72AFFF3E7FEF7F9
:1026300017FE00BF4816002000080020E0D0000868
:1026400030B50B4C0B4D236B2A6883B0002B0192E5
:1026500001DD636B13B10848FFF712FF019A2B6885
:1026600001219A42616301D103B030BDFEF7F8FD4C
:102670004816002000080020D0D00008000000000C
:1026800030B50C4C0C4D236B2A6883B0002B0192A3
:102690000ADD636B002B07DD019A2B6800219A424B
:1026A000616305D103B030BD0448FFF7E9FEF3E7ED
:1026B000FEF7D6FD4816002000080020F0D00008E4
:1026C00030B50F4D83B02B680193202383F311881D
:1026D0000C4C236B002B01DB626B1AB10A48FFF72D
:1026E000CFFE236B01332363002383F31188019A08
:1026F0002B689A4201D103B030BDFEF7B1FD00BF97
:102700000008002048160020A0D0000800000000AB
:1027100030B50F4D83B02B680193202383F31188CC
:102720000C4C236B002B01DD626B1AB10A48FFF7DA
:10273000A7FE236B013B2363002383F31188019AD7
:102740002B689A4201D103B030BDFEF789FD00BF6E
:102750000008002048160020B0D00008000000004B
:1027600000B50F4A0F4B116B186883B00029019018
:1027700009DB526B002A06DD019A1B689A420CD1D4
:1027800003B05DF804FB019A1B689A4205D1064824
:1027900003B05DF804EBFFF773BEFEF761FD00BF09
:1027A000481600200008002000D1000800000000AA
:1027B00000B50E4A0E4B116B186883B0019049B9F1
:1027C000526B002A06DD019A1B689A420CD103B0B5
:1027D0005DF804FB019A1B689A4205D1054803B0D5
:1027E0005DF804EBFFF74CBEFEF73AFD48160020FB
:1027F0000008002010D100080000000000000000C8
:1028000010B5084A084B116882B040240191019923
:10281000126818199142C3E90E4001D102B010BDEF
:10282000FEF71EFD000800204816002000000000F2
:1028300010B51149114B0A6882B00192DA6B9C6A9B
:102840001460DA6B9C695460DA6B846A9460DA6BAA
:1028500090F820001073DA6B03F588601032824222
:1028600028BF03F14002DA63019A0B689A4201D152
:1028700002B010BDFEF7F4FC00080020481600204E
:1028800010B50B4A0B4B116882B04FF0FF34019129
:1028900000219962019811685C6203F11C02884270
:1028A000C3E9072201D102B010BDFEF7D9FC00BF79
:1028B0000008002048160020000000000000000072
:1028C0002DE9F041184E82B00546306801900C4663
:1028D00017469846FFF744FF05B3FFB1F4B1C5E9C9
:1028E00003781248C3699A68944204D91B68A41AF1
:1028F0009A68A242FAD32B605A686A6015605D60DC
:10290000AC609968019D3268091B95424FF0FF3415
:102910009960446206D102B0BDE8F0810448FFF737
:10292000AFFDDCE7FEF79CFC000800204816002005
:1029300020D100080000000000000000000000009E
:1029400030B5164D83B004462B680193FFF708FF9E
:10295000ECB1E368BBB12268A068936801990344B5
:102960009360D4E900231A6020682B680C4A6568DC
:10297000456099424FF000054FF0FF30E56050622E
:1029800009D103B030BD0748FFF77AFDE3E70548FA
:10299000FFF776FDDDE7FEF763FC00BF00080020CF
:1029A0004816002030D100080000000000000000A0
:1029B00000B50A4A0A4B11681B6083B000200191E0
:1029C000019912685B609142C3E90433986002D1B7
:1029D00003B05DF804FBFEF743FC00BF00080020D5
:1029E0004816002000000000000000000000000069
:1029F00030B5164D83B004462B680193FFF7B0FE47
:102A0000ECB194F82030B3B10F2B14D00022A168A0
:102A10000F4B84F820201B689A688A42FBD22360FF
:102A20005A686260146001992A685C60914220468D
:102A300009D103B030BD0748FFF722FDE6E705489E
:102A4000FFF71EFDDDE7FEF70BFC00BF00080020CE
:102A50004816002040D100080000000000000000DF
:102A600070B5204D82B02B6801930446202383F378
:102A7000118800F09DFDFFF7E3FD94F82030072B4F
:102A800011D8DFE803F0161010230A04100AA66A12
:102A9000FFF766FEB3680133B360D4E900231A6020
:102AA000D4E900325A604FF0FF33A3622046FFF7AB
:102AB0009FFFFFF7E5FD00F093FD002383F31188EE
:102AC000019A2B689A420BD102B070BDA36A002212
:102AD0001A604FF0FF33A3622046FFF789FFE8E753
:102AE000FEF7BEFB00080020000000000000000010
:102AF000F0B5194E194C336883B007460193FFF7C0
:102B000057FEA569236885F82070142285F82320D4
:102B10001A68226001215460284683F82010A361BE
:102B2000FFF786FE2946A06900F0F2FCEFF3098367
:102B3000EA69643B9A4202D90948FFF7A1FC019A6D
:102B400033689A4206D1A069294603B0BDE8F04037
:102B5000FDF7AEBBFEF784FB0008002048160020FE
:102B600050D100080000000000000000000000003C
:102B7000F0B5154C87B0236805930E460746FFF75E
:102B800017FE731C18D0114D114AAB6931466846C7
:102B9000FFF796FE3846FFF7ABFFFFF7E1FD039B1B
:102BA00013B16846FFF7CCFE059A2368A9699A42DB
:102BB000886A06D107B0F0BD3846FFF799FF034D8C
:102BC000F2E7FEF74DFB00BF00080020481600208A
:102BD000612A000800000000000000000000000062
:102BE000F0B51E4D1E4E2B6883B0044601930F4670
:102BF000FFF7DEFDB069A7628368A2689A421DD91B
:102C0000FFF7F6FE0123074684F82030B461FFF792
:102C10000FFE3946204600F07BFCEFF30983FA698A
:102C2000643B9A4214D8019A2B689A4214D13946CF
:102C3000204603B0BDE8F040FDF73ABB019A2B688F
:102C40009A4209D1204603B0BDE8F040FFF7D0BE5C
:102C50000448FFF715FCE6E7FEF702FB000800203A
:102C60004816002050D100080000000000000000BD
:102C700010B50E490E4B8A69086892F823101C683B
:102C80008068926882B0019449B9904234BF0020B4
:102C90000120019A1B689A4206D102B010BD9042F1
:102CA00094BF00200120F4E7FEF7DAFA481600206E
:102CB00000080020000000000000000000000000EC
:102CC00070B5184C184E2368A5691A6822605460C4
:102CD000012283F8202082B01422316885F8232055
:102CE0002846A3610191FFF783FE2846FFF7A0FD68
:102CF0002946A06900F00CFCEFF30983EA69643B04
:102D00009A4202D90948FFF7BBFB019A33689A42FD
:102D100006D1A069294602B0BDE87040FDF7C8BAE7
:102D2000FEF79EFA481600200008002050D1000847
:102D300070B51C4D1C4E2A68AC6913682B600121CC
:102D400082B05D60002082F82010AA613268A1681C
:102D500084F82000019200E01B689A688A42FBD840
:102D600023605A686260204614605C60FFF760FD73
:102D70002146A86900F0CCFBEFF30983E269643BCC
:102D80009A4202D90948FFF77BFB019A33689A42BD
:102D900006D1A869214602B0BDE87040FDF788BAA7
:102DA000FEF75EFA481600200008002050D1000807
:102DB00010B50F4C82B023680193FFF7F9FCFFF7C1
:102DC000CFFC0C4B1A689B6992689B689A42019AE7
:102DD000236803D89A4208D102B010BD9A4204D1A8
:102DE00002B0BDE81040FFF7A3BFFEF739FA00BFFD
:102DF000000800204816002000000000000000002D
:102E000000B50E4A0E4B9269196892F8232083B0E0
:102E1000019142B1019A1B689A420DD103B05DF84D
:102E200004EBFFF785BF019A1B689A4204D103B0F7
:102E30005DF804EBFFF744BFFEF712FA48160020D6
:102E4000000800200000000000000000000000005A
:102E5000F0B51A4A1A4D02610446816083B014230A
:102E600050692E68616484F8233002270023012111
:102E7000278484F82210C4E90F3304F16801A361A8
:102E8000019604F12C07636204F1500604F130034B
:102E900060610461C4E90C33E1613046E76254616A
:102EA00000F03EFA304600F05BFA019A2B689A4235
:102EB00002D1204603B0F0BDFEF7D2F9481600203B
:102EC00000080020000000000000000000000000DA
:102ED00010B5094B82B01C680194884203D200F8F7
:102EE000012B8142FBD1019A1B689A4201D102B0A9
:102EF00010BDFEF7B5F900BF00080020000000007B
:102F00002DE9F043184E83B0346801940546DDF88E
:102F100028900C4617469846FFF722FC15B1B4F5E9
:102F2000BC7F19D21148FFF7ABFAA4F16401294420
:102F3000E960C1F84080EB68019AC3F844903368B7
:102F4000E9680B4808669A420CD13946284603B016
:102F5000BDE8F043FFF77CBF7F2FE3D8B8F1000F47
:102F6000E3D1DFE7FEF77CF900080020A0D10008DC
:102F7000C90200080000000000000000000000007E
:102F80002DE9F04FDFF8A48087B0D8F80040DDF8D5
:102F90004090059407468A46934600F16806044629
:102FA000FF2504F8015BA642FBD107EB0A05A54209
:102FB00004D9552604F8016BA542FBD103932022C6
:102FC00082F3118800F0C4FAFFF7FAFA039BCDF8F8
:102FD00000905A4651463846FFF792FF00210446BA
:102FE000FFF7FEFDFFF70CFB00F0CAFA0D4B1A6865
:102FF0009A4204D0996993688A689A420BD3002355
:1030000083F31188059AD8F800309A42204606D1F9
:1030100007B0BDE8F08F0448FFF732FAEFE7FEF79C
:103020001FF900BF4816002060D1000800080020EA
:1030300030B5184C83B0236801930546202383F3F1
:10304000118800F085FAFFF7BBFA15B91248FFF7AF
:1030500017FA29460820FFF78BFDFFF7D1FA00F099
:103060008FFA0E4B1A689A4204D0996993688A685D
:103070009A4208D3002383F31188019A23689A4265
:1030800005D103B030BD0648FFF7FAF9F2E7FEF7C5
:10309000E7F800BF0008002070D1000848160020A3
:1030A00060D10008000000000000000000000000E7
:1030B00070B5164B164E9C693268E36AA06282B006
:1030C00004F12C05AB42019207D01A68E26218465F
:1030D000FFF78EFCE36AAB42F7D194F821309B07EF
:1030E00005D1D4E904231A61D4E904325A610F20CE
:1030F000FFF7FEFC019A33689A4205D1054802B0F9
:10310000BDE87040FFF7BCB9FEF7AAF848160020EA
:1031100000080020B0D100080000000000000000FE
:1031200030B50C4C83B0236801930546202383F30C
:10313000118800F00DFAFFF743FA019A23689A42CA
:1031400005D1284603B0BDE83040FFF7B1BFFEF718
:1031500087F800BF00080020000000000000000009
:10316000F0B50D4D0D4E03682A68B76983B004466B
:10317000019213B10A48FFF783F927600320BC626C
:10318000FFF7B6FC019A2B68B1699A42886A01D1AF
:1031900003B0F0BDFEF764F80008002048160020D8
:1031A000C0D1000800000000000000000000000086
:1031B000F0B5124D04682B6883B00193B4B194F854
:1031C0002030032B06460F460CD100233360019AB2
:1031D0002B68A7629A420FD1204603B0BDE8F040A9
:1031E000FFF706BC0648FFF74BF9EEE7019A2B689C
:1031F0009A4201D103B0F0BDFEF732F8000800207A
:10320000D0D1000800000000000000000000000015
:1032100030B5104A83B01368019381B10E4B019D04
:103220009B69186044685C60236012684360954243
:103230000DD1042003B0BDE83040FFF799BC0199DF
:10324000136899424FF0FF3001D103B030BDFEF753
:1032500007F800BF0008002048160020000000000A
:1032600070B5124D04682B6882B0A042019315D04E
:1032700023680360586094F82030042B0E4602D077
:103280000B48FFF7FDF8019A2B68A6629A420BD112
:10329000204602B0BDE87040FFF7AABB019A2B6838
:1032A0009A4201D102B070BDFDF7DAFF000800209C
:1032B00080D10008000000000000000000000000B5
:1032C0002DE9F041DFF850800468D8F8003082B072
:1032D000A042019313D00F4F05460E4623682B6082
:1032E0005D6094F82030042B02D03846FFF7C8F810
:1032F000A6622046FFF77CFB2C68A542EED1019A1E
:10330000D8F800309A4202D102B0BDE8F081FDF752
:10331000A7FF00BF80D100080008002000000000C7
:1033200030B50B4B83B01A6801924FF0FF32026048
:1033300001991A680024002300259142C0E9044540
:10334000C0E90133C36001D103B030BDFDF788FF90
:103350000008002000000000000000000000000045
:1033600000B5084B084A196883B001915168019A69
:103370001B6881609A4202D103B05DF804FBFDF73F
:103380006FFF00BF00080020001000E000000000F8
:10339000F0B51449144B0A68846883B00192134A4B
:1033A0005B68D2F8A864C2681B1BD0E904450132EF
:1033B0009B1BC26042688360E61845F10007934298
:1033C000C0E9046709D80268934238BF0360019AD4
:1033D0000B689A4203D103B0F0BD4360F7E7FDF7F5
:1033E0003FFF00BF00080020001000E0481600204A
:1033F00030B5114D114C2B6889B04FF0FF31079358
:10340000002300226846C4F8A834CDE901330393B1
:103410000023CDE904230091FFF7A2FF6846FFF7E0
:10342000B7FF079A2B680299C4F8A8149A4201D1F1
:1034300009B030BDFDF714FF000800204816002039
:103440002DE97048134E144B326883B001925B68CB
:103450008B60D0E902411B1BD0E90445426814EBA4
:10346000030B45F1000C01319342C0E90231C0E980
:1034700004BC0AD80268934238BF0360019A3368DB
:103480009A4204D103B0BDE870884360F6E7FDF7C7
:10349000E7FE00BF00080020001000E00000000070
:1034A00030B50D4D0D4C2B6883B004F5976001933A
:1034B0000023C4F8B034C4F8B434FFF731FF019AE4
:1034C0002B689A4206D104F59A6003B0BDE83040FB
:1034D000FFF726BFFDF7C4FE0008002048160020B5
:1034E00000B50949094A0B6883B001930198D2F8E5
:1034F000B034096801338842C2F8B03402D103B055
:103500005DF804FBFDF7ACFE000800204816002023
:1035100070B50D4C0D4A236882B00193019DD2F81D
:10352000B43424680133A542C2F8B43409D10E463C
:1035300000F1500106F1500002B0BDE87040FFF705
:103540007FBFFDF78DFE00BF000800204816002059
:1035500000B5084B83B01A680192019A1B689A4221
:1035600005D1054803B05DF804EBFFF7F9BEFDF7A0
:1035700077FE00BF00080020001B002000000000B4
:1035800000B5084B83B01A680192019A1B689A42F1
:1035900005D1054803B05DF804EBFFF7F9BEFDF770
:1035A0005FFE00BF00080020001B0020000000009C
:1035B00000B5084B83B01A680192019A1B689A42C1
:1035C00005D1054803B05DF804EBFFF7C9BEFDF770
:1035D00047FE00BF00080020181B0020000000006C
:1035E00000B5084B83B01A680192019A1B689A4291
:1035F00005D1054803B05DF804EBFFF7C9BEFDF740
:103600002FFE00BF00080020181B00200000000053
:1036100070B51B4D82B004462B680193FFF7C8F8C4
:1036200044B3A3682268002B10DBA24203D01548E4
:10363000FEF726FFA368013B002BA3600CDB0020F4
:10364000019A2B689A4219D102B070BDA242EED005
:10365000013B002BA360F2DA0B4EB3699C621C6045
:1036600062685A60052013606360FFF741FAB3692E
:10367000986AE5E70348FEF703FFD2E7FDF7F0FDA0
:103680000008002010D200084816002000000000AA
:1036900030B5164C83B0236801930546202383F38D
:1036A0001188FFF755FFFEF78BFF2846FFF7B0FFA5
:1036B0000546FEF7A5FFFFF763FF0D4B1A689A4218
:1036C00004D0996993688A689A4209D3002383F3E6
:1036D0001188019A23689A42284605D103B030BD6B
:1036E0000448FEF7CDFEF1E7FDF7BAFD0008002023
:1036F0004816002000D20008000000000000000072
:1037000030B51C4D83B004462B680193FFF728F8B1
:103710004CB3A3682268002B0FDBA24203D01648EB
:10372000FEF7AEFEA3680133002BA3600BDD019A08
:103730002B689A421BD103B030BDA242EFD00133B7
:10374000002BA360F3DC20680199036823602A68DA
:103750005C6091424FF00003836208D103B0BDE882
:103760003040FFF745B90448FEF78AFED1E7FDF780
:1037700077FD00BF0008002020D2000800000000F4
:1037800030B50B4D83B02B680193044650B12460D3
:1037900001992A68646000239142A360236105D1E6
:1037A00003B030BD0348FEF76BFEF0E7FDF758FDB0
:1037B0000008002040D200080000000000000000C7
:1037C000F0B55D4E5D4B32689D6983B00446019251
:1037D000FEF7EEFF002C00F08480A068236900282B
:1037E00043D0002B40F39780854276D0AA68836847
:1037F0009A4208D990F820308260062B40D0072BDF
:1038000073D0002B5DD02746234603E09968AA6851
:10381000914233D31B689C42F8D12F607B686B6068
:1038200006201D607D60AC62FFF762F9A368AB42C1
:1038300002D04348FEF724FE2B6CA34202D040483E
:10384000FEF71EFE2369012B05D1019A33689A42C7
:103850006FD103B0F0BD019A33689A4269D13848FC
:1038600003B0BDE8F040FEF70BBE002B58D101338A
:10387000A56023612B6CE3602C64E6E71F46CCE770
:10388000D0E900231A60D0E900325A60876A3B46CB
:1038900003E099688268914247D31B689F42F8D140
:1038A00007607B68436018607860836AAA689868DC
:1038B00083689342A7D290F820308260062B9ED175
:1038C000DEE7D0E90023012180F820101A60D0E95A
:1038D00000325A60FFF78CF895E7236901332361C2
:1038E000B3E71748FEF7CCFD77E7D0E900231A606D
:1038F000D0E900325A60876A3B4603E099688268E3
:10390000914214D31B689F42F8D107607B684360E3
:103910001860786077E70A48FEF7B2FDA06863E7B1
:103920000748FEF7ADFD2369A1E71F46B8E71F462C
:10393000EBE7FDF795FC00BF0008002048160020CB
:1039400050D200080000000000000000000000004D
:1039500030B5154C83B0236801930546202383F3CB
:103960001188FFF7F5FDFEF72BFE2846FFF728FF2D
:10397000FEF746FEFFF704FE0C4B1A689A4204D08D
:10398000996993688A689A4208D3002383F311885F
:10399000019A23689A4205D103B030BD0448FEF76E
:1039A0006FFDF2E7FDF75CFC0008002048160020E0
:1039B00030D20008000000000000000000000000FD
:1039C0002DE9F043DFF800813C4FD8F80030BE69A4
:1039D00083B005460193002864D0202383F3118827
:1039E000FFF7B6FDFEF7ECFD336C002B5ED09B6855
:1039F000B34202D03248FEF743FD2B69002B49DD6C
:103A0000013B2B615BBB336CAB4202D02C48FEF711
:103A100037FDEB683364FEF7CBFE2B689D423ED04A
:103A2000D6E910495CB1FEF7C3FE23689C4203D07F
:103A30009B68994538BF9946E468002CF3D1C6F8D5
:103A400008902B6801222A611A682A605560AB60D1
:103A50001A6CEA6018461D640021FFF7C1F8FEF7F2
:103A6000CFFDFFF78DFD3B68BB4204D0BA699B6870
:103A700092689A420AD3002383F31188019AD8F8F6
:103A800000309A4217D103B0BDE8F0830D48FEF72D
:103A9000F7FCF0E70A48FEF7F3FC2B69B0E70023D8
:103AA000AB60DCE70648FEF7EBFC96E70448FEF760
:103AB000E7FC336C9BE7FDF7D3FB00BF4816002003
:103AC00060D2000830D2000800080020000000008A
:103AD00070B5114E82B0044633680193FEF740FE84
:103AE0009CB12068A0420AD06FF0010503682360F2
:103AF0005C60FEF77DFF85622068A042F6D1019AE6
:103B000033689A4205D102B070BD0448FEF7B8FC94
:103B1000E7E7FDF7A5FB00BF0008002080D2000802
:103B200030B5164C83B0236801930546202383F3F8
:103B30001188FFF70DFDFEF743FD2846FFF7C8FF8C
:103B4000FFF736F9FEF75CFDFFF71AFD0C4B1A681C
:103B50009A4204D0996993688A689A4208D30023EC
:103B600083F31188019A23689A4205D103B030BDCE
:103B70000448FEF785FCF2E7FDF772FB0008002021
:103B80004816002070D2000800000000000000006D
:103B900070B5184E82B00446336801930D46FEF7A7
:103BA000DFFD0CB3E16B94F8203029430A2BE1636D
:103BB00016D00B2B05D0019A33689A4218D102B067
:103BC00070BDA36A8B43F6D1019A336800219A42F3
:103BD000A1620DD1204602B0BDE87040FEF708BFDB
:103BE000A36A1942F0D1E6E70348FEF749FCD9E79A
:103BF000FDF736FB00080020C0D2000800000000DE
:103C0000F0B5134F83B006463B6801930D46FEF7AF
:103C1000A7FDB6B13468A6420DD0E3682B43E3603C
:103C200015B12269134203D0D4E90101FFF7B0FFB7
:103C30002468A642F1D1019A3B689A4205D103B0AB
:103C4000F0BD0448FEF71CFCE4E7FDF709FB00BFEC
:103C500000080020A0D200080000000000000000C2
:103C600070B50C4CC16082B0266801960A440060B1
:103C7000019E02612268069D4060C0E905119642DE
:103C80004FF00001C3618160056201D102B070BDD7
:103C9000FDF7E6FA00080020000000000000000028
:103CA00070B5164D82B004462B6801930E46FEF7A0
:103CB00057FDFEF755FDD4E905239A42A36816D0B7
:103CC0000133511CA36061611670D4E904329A4239
:103CD0000AD220460021FFF7C3FA0020019A2B6880
:103CE0009A4209D102B070BDE3686361F1E7002B2D
:103CF000E6D06FF00300F1E7FDF7B2FA000800200C
:103D0000F0B5234F83B03B68019304460E46202351
:103D100083F31188FFF71CFCFEF752FCE36943B103
:103D20002046984705E031462046FFF771FA051E08
:103D300010DBFEF715FDA368002BF4D0A169206904
:103D40004A1C013B8242A360A26128BFE3680D7850
:103D500028BFA361FEF754FCFFF712FC0D4B1A6855
:103D60009A4204D0996993688A689A4209D30023D9
:103D700083F31188019A3B689A42284605D103B023
:103D8000F0BD0548FEF77CFBF1E7FDF769FA00BFDF
:103D90000008002048160020D0D2000800000000D3
:103DA0002DE9F04FDFF8F490044685B0D9F8000013
:103DB00003908A461D46D4F81C809346002A60D0A2
:103DC000202383F311880193FFF7C2FBFEF7F8FB72
:103DD0002F4E0027B8F1000F07D02046C04704E05F
:103DE00029462046FFF714FA60BBFEF7B9FCA3682A
:103DF000002BF5D0A269013B511CA161A36013788F
:103E00000AF8013B2369A2699A4224BFE368A361CF
:103E1000FEF7F6FBFFF7B4FB3368B34204D0B26998
:103E20009B6892689A4228D3002383F31188013754
:103E3000BB4519D0019B83F31188FFF789FBFEF77F
:103E4000BFFBC7E7FEF7DCFBFFF79AFB3368B34223
:103E500007D0B2699B6892689A4202D20D48FEF779
:103E60000FFB002383F31188039AD9F800309A429C
:103E700038460AD105B0BDE8F08F0648FEF700FBD2
:103E8000D2E70548FEF7FCFA9AE7FDF7E9F900BF2B
:103E900048160020D0D20008E0D200080008002018
:103EA00070B50B4D82602E68C16082B0C0E9000021
:103EB00001960A44019E02612A68069C9642C0E966
:103EC0000511C0E9073401D102B070BDFDF7C8F992
:103ED00000080020000000000000000000000000BA
:103EE0002DE9F0412E4F82B03B680193044688468D
:103EF0001646202383F31188FFF72AFBFEF760FBA9
:103F000005E031462046FFF783F9051E2DDBFEF75D
:103F100027FCA368002BF4D06269013B511C61614E
:103F2000A36082F80080D4E904329A4224BFE36897
:103F30006361E3690BB120469847FEF761FBFFF729
:103F40001FFB184B1A689A4204D0996993688A68D3
:103F50009A421ED3002585F31188019A3B689A4244
:103F600028461AD102B0BDE8F081FEF749FBFFF701
:103F700007FB0C4B1A689A4207D0996993688A68C4
:103F80009A4202D20848FEF77BFA002383F3118895
:103F9000E3E70548FEF774FADCE7FDF761F900BFD7
:103FA0000008002048160020D0D2000800000000C1
:103FB00070B5154E82B0044633680193FEF7D0FB0E
:103FC000FEF7CEFBD4E905329342A36815D02069F1
:103FD000511C0133A360A161814215780AD22046A9
:103FE0000021FFF73DF92846019A33689A4209D12A
:103FF00002B070BDE368A361F1E7002BE7D06FF07A
:104000000200F1E7FDF72CF9000800200000000095
:104010002DE9F04F04463B48D4F81C90006885B069
:104020000D46039001931646002A61D04FF0200AF6
:104030008AF31188FFF78CFAFEF7C2FA4FF00008F6
:10404000314FC346FEF78CFBA368002B32D0626968
:10405000013B511C6161A3602B781370D4E90432D9
:104060009A4224BFE36863610135B9F1000F01D0C2
:104070002046C847FEF7C4FAFFF782FA3B68BB4206
:1040800007D0BA699B6892689A4202D21F48FEF72D
:10409000F7F98BF31188013E08F101081FD08AF36C
:1040A0001188FFF755FAFEF78BFAFEF759FBA36864
:1040B000002BCCD101992046FFF7AAF80028C1D0E7
:1040C000FEF79EFAFFF75CFA3B68BB4204D0BA6980
:1040D0009B6892689A420FD3002383F31188094B9F
:1040E000039A1B689A4240460AD105B0BDE8F08F9A
:1040F0000748FEF7C5F999E70448FEF7C1F9EBE771
:10410000FDF7AEF80008002048160020D0D20008C5
:10411000F0D20008000000000000000000000000D5
:1041200030B50B490B4A0B680B4D0C4C83B022F099
:104130000702019301980A4B09682A6023F00703DC
:104140008842236001D103B030BDFDF789F800BF7C
:10415000000800202F250020BC1C0020B81C0020D7
:10416000000002200000000000000000000000002D
:1041700070B51C4E82B0336801930446202383F34C
:104180001188FFF7E5F9FEF71BFAFEF7E9FA164A80
:10419000164B15681B68E01D20F007005B1B98425A
:1041A0009ABF401910600025FEF72AFAFFF7E8F9D8
:1041B0000F4B1A689A4204D0996993688A689A42A8
:1041C00009D3002383F31188019A33689A42284661
:1041D00005D102B070BD0748FEF752F9F1E7FDF7CF
:1041E0003FF800BF00080020BC1C0020B81C0020C5
:1041F0004816002010D30008000000000000000056
:1042000000B50B4B0B481A6883B0019201991A68EC
:10421000094B036091424FF00003C0E9023305D11E
:10422000103003B05DF804EBFFF7AABAFDF718F8F9
:1042300000080020C01C00207141000800000000A0
:1042400080B50D4A0D4982B000AF13687B604B68A2
:1042500023F001034B60EFF30983683383F309888C
:10426000002383F3118879681368994202D10837D3
:10427000BD4680BDFCF7F4FF0008002030EF00E0F1
:10428000B0B5194C82B000AF23687B60202383F364
:104290001188164B5B6813F4006308D183F311880F
:1042A0007A6823689A421DD10837BD46B0BDF1EE49
:1042B000103AEFF309854FF080720D4B45F84C2C06
:1042C000DB6845F8083CA5F1680383F30988FEF72D
:1042D000CFFC18B1074B45F8503CE1E7064B45F8D9
:1042E000503CDDE7FCF7BCFF0008002000ED00E0DB
:1042F00030EF00E0E1020008F402000800000000D6
:1043000010B5184C82B02368019302F011F91648D9
:1043100003F0A6FD00F0D4F800F0EAF900F030FA5E
:1043200000F05EFA00F08CFA00F0BAFA00F0E8FA59
:1043300000F016FB01F064F901F06AF801F0F0F901
:1043400001F036FA01F0DCF905F0B2F8019A2368C1
:104350009A4204D102B0BDE8104001F011BAFCF756
:104360007FFF00BF00080020F0D700080000000019
:10437000F0B51A4D83B02B68019391420E46144656
:10438000074619D38B1A1F2B16D806F01F03581C8B
:104390006209012376098340B24203F1FF3304F03E
:1043A0001F0457F822000BD31840E040019A2B68F5
:1043B0009A4210D103B0F0BD0948FEF761F8E4E776
:1043C00057F82610C4F120020B4020FA04F403FA37
:1043D00002F02043EAE7FCF743FF00BF000800209B
:1043E00020D30008000000000000000000000000D2
:1043F000F0B51D4E83B033680193054670B37E223D
:104400007F212846FFF7B4FF80B1012806D00020A5
:10441000019A33689A4225D103B0F0BD2846302274
:104420004521FFF7A5FF01308002F1E73E22492137
:104430002846FFF79DFF2F22044631212846FFF72B
:1044400097FF5022074653212846FFF791FF01347A
:1044500002370938BC4004FA00F0D9E70348FEF7F8
:104460000FF8CCE7FCF7FCFE0008002040D3000862
:10447000F0B5104D83B02B680193044698B194F8C1
:10448000D63094F8D770019994F8D4602A6894F8DB
:10449000D5001B0403EB07633344914203EB002078
:1044A00005D103B0F0BD0448FDF7EAFFE7E7FCF7EC
:1044B000D7FE00BF0008002060D300080000000005
:1044C00000B5074B83B01A680192019A1B689A42A3
:1044D00004D103B05DF804EB02F0EAB8FCF7C0FECB
:1044E00000080020000000000000000000000000A4
:1044F00000B50C4B83B01A68019201220270019939
:104500001A6800239142C0E90133C0E903334361D3
:1045100005D1183003B05DF804EBFFF731B9FCF7B3
:104520009FFE00BF00080020000000000000000007
:1045300070B51D4D82B02B6801930E46044668B3DA
:10454000202383F31188FFF703F8FEF739F8237867
:10455000013B012B02D91548FDF792FF204666600A
:1045600002F0F6F802232370FEF74AF8FFF708F886
:104570000F4B1A689A4204D0996993688A689A42E4
:1045800008D3002383F31188019A2B689A4209D13A
:1045900002B070BD0748FDF773FFF2E70348FDF76F
:1045A0006FFFCDE7FCF75CFE0008002090D3000809
:1045B0004816002080D30008000000000000000022
:1045C0002DE9F041174D82B00446286801900E464F
:1045D00090461F46FEF7C4F83CB136B1B8F1000F63
:1045E00003D0012F04D0FB0702D50F48FDF748FF89
:1045F0002378022B05D0043B012B02D90A48FDF792
:104600003FFF03232370019A2B6826619A42C4E975
:10461000028705D1204602B0BDE8F04102F018B98A
:10462000FCF71EFE00080020A0D3000800000000D8
:104630002DE9F041184C82B0256801959846054651
:104640000E461746202383F31188FEF781FFFDF7FE
:10465000B7FF43463A4631462846FFF7B1FFFDF71C
:10466000CFFFFEF78DFF0D4B1A689A4204D099696F
:1046700093688A689A4209D3002383F31188019AC8
:1046800023689A4206D102B0BDE8F0810448FDF7E4
:10469000F7FEF1E7FCF7E4FD0008002048160020D3
:1046A00080D30008000000000000000000000000AF
:1046B00030B50B4C83B023680193054650B1019A85
:1046C00023689A420AD105F1180003B0BDE83040D2
:1046D000FFF73EB90348FDF7D3FEF0E7FCF7C0FD56
:1046E00000080020C0D30008000000000000000007
:1046F00000B5074B83B01A680192019A1B689A4271
:1047000004D103B05DF804EB02F0F2BEFCF7A8FDA3
:104710000008002000000000000000000000000071
:1047200030B5134B83B01A68019201220270019CCC
:104730001968002200F1180300F11C054260836132
:1047400000F1200200F12403C561026200F1280596
:1047500000F1080243628C4200F110038562C0E957
:104760000222C0E9043301D103B030BDFCF778FD6B
:104770000008002000000000000000000000000011
:1047800000B5074B83B01A680192019A1B689A42E0
:1047900004D103B05DF804EB03F042BBFCF760FD0D
:1047A00000080020000000000000000000000000E1
:1047B00000B50A4B83B01A68019201220270019978
:1047C0001A6800239142C0E9043305D1183003B0C0
:1047D0005DF804EBFEF7D4BFFCF742FD00080020B3
:1047E00000B5074B83B01A680192019A1B689A4280
:1047F00004D103B05DF804EB02F09ABEFCF730FD83
:104800000008002000000000000000000000000080
:1048100000B5084B83B01A68019201220270019A18
:104820001B6800219A42416002D103B05DF804FB8D
:10483000FCF716FD0008002000000000000000004A
:1048400000B5074B83B01A680192019A1B689A421F
:1048500004D103B05DF804EB04F002BAFCF700FDEC
:104860000008002000000000000000000000000020
:1048700000B5084B83B01A68019201220270019AB8
:104880001B6800219A42416002D103B05DF804FB2D
:10489000FCF7E6FC0008002000000000000000001B
:1048A00000B5074B83B01A680192019A1B689A42BF
:1048B00004D103B05DF804EB03F0EABCFCF7D0FCD4
:1048C00000080020000000000000000000000000C0
:1048D00000B50A4B83B01A68019201220270019A56
:1048E0001B6800219A42416005D10C3003B05DF88D
:1048F00004EBFEF745BFFCF7B3FC00BF0008002047
:1049000000B5074B83B01A680192019A1B689A425E
:1049100004D103B05DF804EB04F0C2B8FCF7A0FCCE
:10492000000800200000000000000000000000005F
:1049300000B5084B83B01A68019201220270019AF7
:104940001B6800219A42416002D103B05DF804FB6C
:10495000FCF786FC000800200000000000000000BA
:1049600000B5074B83B01A680192019A1B689A42FE
:1049700004D103B05DF804EB04F062BAFCF770FCFC
:1049800000080020000000000000000000000000FF
:1049900000B5094B83B01A68019201220270019997
:1049A0001A68002391424360C360037402D103B0CC
:1049B0005DF804FBFCF754FC000800200000000038
:1049C00070B5214E82B0336801930D46044600282D
:1049D00033D0002931D0202383F31188FEF7B8FDAE
:1049E000FDF7EEFD2378013B012B02D91748FDF7B7
:1049F00047FD65606B68A360204604F061FA002201
:104A00000223E2602370FDF7FBFDFEF7B9FD104BBA
:104A10001A689A4204D0996993688A689A4208D3BE
:104A2000002383F31188019A33689A4209D102B0B6
:104A300070BD0848FDF724FDF2E70448FDF720FDAE
:104A4000C9E7FCF70DFC00BF00080020E0D3000818
:104A500048160020D0D3000800000000000000002D
:104A600070B51C4E82B0336801930C46054650B3B6
:104A7000202383F31188FEF76BFDFDF7A1FD2B7852
:104A8000022B02D01448FDF7FBFCAB69AC60013C83
:104A9000DC62FDF7B5FDFEF773FD104B1A689A4214
:104AA00004D0996993688A689A4208D3002383F3F3
:104AB0001188019A33689A4209D102B070BD084842
:104AC000FDF7DEFCF2E70448FDF7DAFCD0E7FCF77F
:104AD000C7FB00BF00080020F0D3000848160020E4
:104AE000D0D300080000000000000000000000001B
:104AF000F0B5214E83B0336801930D461746044646
:104B000078B3037C8B422CD9202383F31188FEF7E2
:104B10001FFDFDF755FD2378022B02D01748FDF746
:104B2000AFFCE3680122AA401343E3603A462946FA
:104B3000204604F0ADFAFDF763FDFEF721FD104BB2
:104B40001A689A4204D0996993688A689A420CD389
:104B5000002383F31188019A33689A4209D103B084
:104B6000F0BD0648FDF78CFCCEE70648FDF788FC53
:104B7000EEE7FCF775FB00BF0008002000D400083A
:104B800048160020D0D300080000000000000000FC
:104B900070B5204E82B0336801930D46044678B359
:104BA000037C8B422CD9202383F31188FEF7D0FCA1
:104BB000FDF706FD2378022B02D01748FDF760FCB5
:104BC000E3680122AA4023EA0203E3602946204663
:104BD00004F076FAFDF714FDFEF7D2FC0F4B1A68CD
:104BE0009A4204D0996993688A689A420CD3002348
:104BF00083F31188019A33689A4209D102B070BDDB
:104C00000548FDF73DFCCEE70548FDF739FCEEE72A
:104C1000FCF726FB0008002020D4000848160020DE
:104C2000D0D30008000000000000000000000000D9
:104C300030B51E4D83B02B680193044680B320230A
:104C400083F31188FEF784FCFDF7BAFC2378022B6E
:104C500002D01748FDF714FC63689B68E3B1204657
:104C600004F04EFAFDF7CCFCFEF78AFC114B1A68F3
:104C70009A4204D0996993688A689A4208D30023BB
:104C800083F31188019A2B689A420DD103B030BD8D
:104C90000948FDF7F5FBF2E70548FDF7F1FBDEE714
:104CA0000348FDF7EDFBCAE7FCF7DAFA000800203D
:104CB00040D4000848160020D0D3000800000000AF
:104CC00070B5294E82B0336801930D460446002822
:104CD00032D0037C8B422FD9202383F31188FEF737
:104CE00037FCFDF76DFC2378022B02D01F48FDF73F
:104CF000C7FBE368EB40DB0726D5636803EBC5031E
:104D00001B6953B32946204604F01AFAFDF778FCD4
:104D1000FEF736FC164B1A689A4204D099699368DC
:104D20008A689A420CD3002383F31188019A33686E
:104D30009A4216D102B070BD0C48FDF7A1FBCBE73B
:104D40000C48FDF79DFBEEE70848FDF799FB63680B
:104D500003EBC5031B69002BD4D10448FDF790FB7E
:104D6000D0E7FCF77DFA00BF0008002060D40008FF
:104D700048160020D0D3000800000000000000000A
:104D800070B5104D82B02B6801930E46044650B1A9
:104D900049B12379052B0CD00120019A2B689A4246
:104DA0000ED102B070BD0848FDF76AFB2379052BD0
:104DB000F2D1A36A73604FF4007333600020ECE714
:104DC000FCF74EFA00080020F0D4000800000000B4
:104DD0002DE9F047DFF89C8386B002AFD8F80030A9
:104DE000FB600446002800F019812379022B01D0D2
:104DF000052B2BD103232371204602F031FC002226
:104E00001146204602F0A4FC07F108034FF4D572C6
:104E10000821204602F0E4FCE0B9BB680122C3F39C
:104E200003239342226300F0FD80204602F050FCF1
:104E3000022323710125FA68D8F800309A422846E7
:104E400040F046811037BD46BDE8F087C048FDF709
:104E500017FBCFE707F1080300223721204602F0B5
:104E6000BFFC002840F0BE80BB68BA4A1A40002A46
:104E700040F0B88022631146204602F069FC266BA0
:104E800006F00F03022B00F0AF80B34EB34ADFF8F9
:104E9000C492012B18BF1646642504E0013DC4D01E
:104EA0000A20FEF7C5F807F1080300223721204643
:104EB00002F096FC0028B8D1BB6813EA090FB4D100
:104EC00007F1080332462921204602F061FC002840
:104ED000ABD1BB68002BE1DA5B0003D5236B43F059
:104EE0001003236304F1080300220221204602F08C
:104EF0006FFD002899D1024604F1380303212046B2
:104F000002F06EFC002890D104F118052B46A26B2C
:104F10000921204602F05CFD002886D13B1DA26BD2
:104F20000721204602F05CFC824600287FF47DAF1A
:104F3000236B03F00F03022B00F097806E467E2256
:104F400090B07F212846FFF713FA0DF108090028D9
:104F500079D10146B546204602F0A2FB236B03F04F
:104F60000F03022B00F096802846FFF741FAA0625B
:104F70003B1D4FF400721021204602F031FC054623
:104F800000287FF452AF7B68724E33427FF44DAFFE
:104F9000236B03F00F03012B40F2B280022B7FF44E
:104FA00044AFE36A1A79012A00F0A88017D3022AD5
:104FB00040F0E2806A4E1979204602F0A1FB07F129
:104FC000080332460621204602F00AFC00287FF43E
:104FD0002CAFBA685F4B1340002B7FF426AF05233C
:104FE000237128E7022323635E4E642505E0013D1B
:104FF0003FF41BAF0A20FEF71BF807F10803324607
:105000000121204602F0C4FB00287FF40EAFBB68EC
:10501000002BECDA5B007FF565AF5FE74C48FDF7EE
:105020002FFAE2E6024607F108033721204602F094
:10503000D7FB00287FF4F9AEBA68464B1340002B2B
:105040007FF4F3AE1BE7CDF800A0062340224946CB
:10505000204602F0EDFC00284ED199F80D3013F0F7
:10506000020337D11946B54675E7E36A1B687BB181
:1050700007F108033C4A0621204602F0B1FB38B98B
:10508000BB6834491940B1FA81F1490963E7B54673
:10509000002160E77E227F212846FFF769F9012879
:1050A0007FF662AFE36A1D68002D3FF4BEAE0023B9
:1050B00000934FF4007208232946204602F0B8FC02
:1050C00000287FF4B2AE2846FFF7D2F9A0624FE77E
:1050D000FCF7C6F8254B009340220623494620469C
:1050E00002F0A6FC40B999F8103003F00F030F2B23
:1050F000CDD0B54601212EE7B54696E61C4E5AE7BF
:10510000E36A197900293FF46AAF01297FF48DAE73
:10511000204602F0F5FA07F10803A26B372120467A
:1051200002F05EFB00287FF480AEBB6833427FF460
:105130007CAE07F1080302220621204602F050FB54
:1051400000287FF472AEBB6833423FF448AF6CE690
:10515000A0D4000808E0FFFD000010C0000010808F
:105160000002B7030080FFC00001B903F1FFFF8018
:105170000001B703000800200248034EFDF780F944
:10518000E36A18E780D400080000B70300000000BD
:105190002DE9F041194D82B02C6801940F469046DC
:1051A0001E460446C0B1BAB1B3B12379052B02D073
:1051B0001348FDF765F9781EA36A304498420FD969
:1051C000636B43F0800363630120019A2B689A426A
:1051D00011D102B0BDE8F0810948FDF751F9E4E7CB
:1051E00006203346207142463946204602F080FDB3
:1051F00005232371E9E7FCF733F800BF000800201E
:10520000C0D4000800000000000000000000000002
:105210002DE9F041194D82B02C6801940F4690465B
:105220001E460446C0B1BAB1B3B12379052B02D0F2
:105230001348FDF725F9781EA36A304498420FD928
:10524000636B43F0800363630120019A2B689A42E9
:1052500011D102B0BDE8F0810948FDF711F9E4E78A
:1052600007203346207142463946204602F080FD31
:1052700005232371E9E7FBF7F3FF00BF00080020D7
:10528000D0D4000800000000000000000000000072
:1052900070B50E4D82B02B680193044680B126791B
:1052A000052E06D00120019A2B689A420CD102B03B
:1052B00070BD08232371204602F09AFD2671F2E7A3
:1052C0000348FDF7DDF8EAE7FBF7CAFF0008002016
:1052D000E0D4000800000000000000000000000012
:1052E00070B5124D124E2B6882B0044601936B4686
:1052F000A26B0D21204602F073FA78B9009B33426D
:105300000BD1C3F34323042B08D04FF0010005D386
:10531000072B03D8FDF78CFEE9E70120019A2B68E3
:105320009A4201D102B070BDFBF79AFF000800203D
:1053300008E0FFFD00000000000000000000000089
:1053400070B52D4E82B033680193044600284CD0CE
:10535000202383F31188FEF7FBF8FDF731F9237959
:10536000022B29D0052B21D104232371FDF748F905
:10537000FEF706F9214B1A689A4204D0996993689E
:105380008A689A4229D3002383F311882046FFF7C5
:10539000A7FF0546204602F09BF902232371019ADC
:1053A00033689A42284624D102B070BD1448FDF7F4
:1053B00067F82379022BD7D1FDF722F9FEF7E0F841
:1053C0000E4B1A689A4204D0996993688A689A4287
:1053D00007D3002585F31188E1E70A48FDF750F867
:1053E000D1E70848FDF74CF8F3E70548FDF748F822
:1053F000AEE7FBF735FF00BF00080020481600208D
:10540000B0D4000800D50008000000000000000033
:1054100000B5074B83B01A680192019A1B689A4243
:1054200004D103B05DF804EB02F0FAB8FBF718FF03
:105430000008002000000000000000000000000044
:1054400010B50A4B0A4A1968026082B00124019122
:1054500001991A680471002391424363C0E90A3339
:1054600001D102B010BDFBF7FBFE00BF0008002019
:1054700010D500080000000000000000000000003F
:1054800030B5084C83B025680195019D2468A5427C
:1054900005D10C3003B0BDE83040FEF781BCFBF70E
:1054A000DFFE00BF00080020000000000000000038
:1054B00010B5094B82B01C680194019C1B689C428A
:1054C00007D10C304FF0FF3302B0BDE81040FEF7BB
:1054D00067BCFBF7C5FE00BF00080020000000000D
:1054E00030B5084C83B025680195019D2468A5421C
:1054F00005D1303003B0BDE83040FEF789BDFBF781
:10550000AFFE00BF00080020000000000000000007
:1055100010B5094B82B01C680194019C1B689C4229
:1055200007D130304FF0FF3302B0BDE81040FEF736
:105530006FBDFBF795FE00BF0008002000000000D3
:1055400000B5084B83B01A680192019A1B689A4211
:1055500005D10C3003B05DF804EBFEF7D1BBFBF7CF
:105560007FFE00BF000800200000000000000000D7
:1055700000B5094B83B01A680192019A1B689A42E0
:1055800007D10C304FF0FF3103B05DF804EBFEF7AC
:10559000B7BBFBF765FE00BF00080020000000005D
:1055A00010B5084B82B01C680194019C1B689C429A
:1055B00005D1303002B0BDE81040FEF791BCFBF7DA
:1055C0004FFE00BF000800200000000000000000A7
:1055D00000B5094B83B01A680192019A1B689A4280
:1055E00007D130304FF0FF3203B05DF804EBFEF727
:1055F00077BCFBF735FE00BF00080020000000006C
:1056000000B5074B83B01A680192019A1B689A4251
:1056100004D103B05DF804EB03F0E2BEFBF720FE1B
:105620000008002000000000000000000000000052
:10563000F0B5144D144B2F68044685B040F8043B78
:105640004FF0010C00940B461646606084F808C0C9
:1056500004F1540104F10C0010220397FEF700FB43
:1056600033461022009404F1640104F13000FEF787
:1056700017FC039A2B689A4201D105B0F0BDFBF7E5
:10568000EFFD00BF0008002040D50008000000002A
:1056900070B5174D82B004462B6801930E46FDF796
:1056A0005FF8F4B1FDF75CF8636963B1314604F16A
:1056B0000C00FEF7F5FA0028019A2B6808DB9A42E5
:1056C00013D102B070BD04216018FEF799FAEDE71E
:1056D0009A420AD1201D802102B0BDE87040FEF739
:1056E0008FBA0448FCF7CCFEDCE7FBF7B9FD00BF3E
:1056F0000008002030D50008000000000000000075
:1057000000B5064B83B01A680192019A1B689A4251
:1057100002D103B05DF804FBFBF7A2FD00080020F6
:1057200000B5074B83B01A680192019A1B689A4230
:1057300004D103B05DF804EB03F0DAB9FBF790FD98
:105740000008002000000000000000000000000031
:1057500000B50A4B83B01A680192012202700199C8
:105760001A6800239142C0E9013305D10C3003B01F
:105770005DF804EBFEF704B8FBF772FD00080020AB
:1057800000B5074B83B01A680192019A1B689A42D0
:1057900004D103B05DF804EB03F01ABDFBF760FD24
:1057A00000080020000000000000000000000000D1
:1057B00000B5074B83B01A680192019A1B689A42A0
:1057C00004D103B05DF804EB02F08ABDFBF748FD9D
:1057D00000080020000000000000000000000000A1
:1057E00000B50C4B83B01A68019201220270019936
:1057F0001A6800239142C36183620362C3624362F9
:105800000363C0E9013302D103B05DF804FBFBF789
:1058100027FD00BF0008002000000000000000007D
:10582000F0B5124D83B004462B6801930E46FCF789
:1058300097FFA4B1012000FA06F362899BB212EA35
:10584000030706D1134320466381314603F060F815
:105850003846019A2B689A4205D103B0F0BD04483E
:10586000FCF70EFEE6E7FBF7FBFC00BF000800209C
:1058700060D50008000000000000000000000000EB
:10588000F0B5124D83B004462B6801930E46FCF729
:1058900067FFA4B1012000FA06F322899BB212EA45
:1058A000030706D1134320462381314603F050F805
:1058B0003846019A2B689A4205D103B0F0BD0448DE
:1058C000FCF7DEFDE6E7FBF7CBFC00BF000800209D
:1058D00080D500080000000000000000000000006B
:1058E00010B50D4A82B01168019102210170019C2E
:1058F000116800228C42C264C0E90222C0E904227D
:10590000826180F8342004D102B0BDE8104002F07A
:1059100017BDFBF7A5FC00BF000800200000000039
:10592000F0B5C34D83B0044600222B6880F83420C4
:1059300000F14402019302F0DBFD63689B68002BD9
:1059400036D02046984798B3E16B94F8443094F8E9
:105950004B0094F84A2042EA00228A422CBF0A46B1
:10596000E2631806E16800F1A680002A00F0848056
:10597000042384F834308B69A16BD96000265A6007
:105980001E709E603146204602F0CAFD202383F33C
:105990001188FDF70DFEFCF753FE31462046FFF758
:1059A0003FFFFCF76DFEFDF71BFE86F3118816E046
:1059B00094F8443013F06006184617D000212046B2
:1059C00003F00EF80021204602F0EAFF63681B682E
:1059D00013B1052120469847062384F83430019AF4
:1059E0002B689A4240F03A8103B0F0BD94F845101C
:1059F00003F07F0242EA0122B2F5407F00F0058108
:105A000017D9B2F5C06F00F0C68040F28A80B2F5B7
:105A1000106F64D040F602418A4200F0D880B2F59F
:105A2000006FCBD104F14F0201212664C4E90E219D
:105A30008DE7022A00F0D28040F29280B2F5807F9A
:105A400060D0B2F5817FB9D194F84630002BB5D142
:105A500094F8483013F00F0107D01F06204600F1DC
:105A6000F38002F0DDFF94F844000023C4E90E3314
:105A700023640306E16829D4052384F834304B6994
:105A800000261E70DE605E609E603146204602F099
:105A9000E7FD202383F31188FDF78AFDFCF7D0FD95
:105AA00031462046FFF7ECFEFCF7EAFDFDF798FDD6
:105AB00086F3118893E74AB1012384F834304B69A7
:105AC000A16BD96000265A601E70DDE7032384F8BD
:105AD00034308B6900261E70DE605E6051E794F8FA
