:020000040800F2
:1000000000040020C1010008A1330008A13300084A
:10001000A11D0008A1330008A1330008A133000886
:10002000A1330008A1330008A1330008E153000800
:10003000A1330008A1330008A133000841AD000836
:10004000A133000881840008118600086186000839
:10005000A1330008A1330008C18100081182000803
:1000600061820008B1820008018300081174000851
:1000700061740008B174000801750008517500082A
:10008000A1750008F1750008017F000801880008CB
:100090007188000821890008D1890008518300086F
:1000A000A1330008A1330008A1A70008A13300086C
:1000B00001A9000841A9000881A90008919700083A
:1000C000D1980008A1330008A1330008A13300082B
:1000D000A1330008A1330008A133000801AE0008D5
:1000E000E1830008D184000821850008E1A7000809
:1000F000A1330008A1330008A133000841760008AD
:10010000A1330008618B0008C1A90008A1330008D1
:10011000A1330008A133000861A70008A13300083B
:1001200091760008E17600083177000881770008B1
:10013000D1770008A133000871850008A1330008B9
:10014000A1330008A1330008A1330008A1A30008CF
:100150002178000871780008C1780008A1330008F0
:10016000A1330008A1330008A1330008A13300081F
:10017000C1850008A133000811190008A133000847
:10018000A1330008A1330008A1330008A1330008FF
:10019000A1330008A1330008A1330008A1330008EF
:1001A000A1330008A1330008A1330008A1330008DF
:1001B000A1330008A1330008A1330008A1330008CF
:1001C00072B62E4880F3098840F20000CCF200009D
:1001D0004EF63471CEF20001086040F20000C0F229
:1001E000F0004EF68851CEF2000108604FF000009A
:1001F000E1EE100A4EF63C71CEF2000108600620D6
:1002000080F31488BFF36F8F0AF042FF4FF0553030
:100210001B491C4A91423CBF41F8040BFAE71A49BA
:10022000164A91423CBF41F8040BFAE71749184AB5
:10023000184B9A423EBF51F8040B42F8040BF8E702
:1002400000201549154A91423CBF41F8040BFAE7DA
:1002500003F08EF8124C134DAC4203DA54F8041B31
:100260008847F9E700F0F4FF0F4C104DAC4203DA79
:1002700054F8041B8847F9E703F08AB80008002007
:100280000000002000040020000400206810010885
:1002900000080020FC110020001200204829002046
:1002A000C0010008C0010008C0010008C00100082A
:1002B0002DE9F04F2DED108AC1F80CD0D0F80CD0FC
:1002C000BDEC108ABDE8F08F03F0AAF904F0E0F964
:1002D000002383F311882846A047002003F078FF0D
:1002E00004F0BEF903F07CF903F09AFD03F098F9ED
:1002F00004F0CEF900DFFEE700000000000000007F
:1003000081F0004102E000BF83F0004330B54FEAC6
:1003100041044FEA430594EA050F08BF90EA020F33
:100320001FBF54EA000C55EA020C7FEA645C7FEAC6
:10033000655C00F0E2804FEA5454D4EB5555B8BFE9
:100340006D420CDD2C4480EA020281EA030382EA5A
:10035000000083EA010180EA020281EA0303362DEC
:1003600088BF30BD11F0004F4FEA01314FF4801CBF
:100370004CEA113102D0404261EB410113F0004FD1
:100380004FEA03334CEA133302D0524263EB430388
:1003900094EA050F00F0A780A4F10104D5F1200E26
:1003A0000DDB02FA0EFC22FA05F2801841F1000181
:1003B00003FA0EF2801843FA05F359410EE0A5F155
:1003C00020050EF1200E012A03FA0EFC28BF4CF086
:1003D000020C43FA05F3C01851EBE37101F000453C
:1003E00007D54FF0000EDCF1000C7EEB00006EEB49
:1003F0000101B1F5801F1BD3B1F5001F0CD34908D3
:100400005FEA30004FEA3C0C04F101044FEA445229
:1004100012F5800F80F09A80BCF1004F08BF5FEAB0
:10042000500C50F1000041EB045141EA050130BD90
:100430005FEA4C0C404141EB010111F4801FA4F133
:100440000104E9D191F0000F04BF01460020B1FA88
:1004500081F308BF2033A3F10B03B3F120020CDAC0
:100460000C3208DD02F1140CC2F10C0201FA0CF09E
:1004700021FA02F10CE002F11402D8BFC2F1200C03
:1004800001FA02F120FA0CFCDCBF41EA0C019040B9
:10049000E41AA2BF01EB0451294330BD6FEA040402
:1004A0001F3C1CDA0C340EDC04F11404C4F12002ED
:1004B00020FA04F001FA02F340EA030021FA04F3FF
:1004C00045EA030130BDC4F10C04C4F1200220FA56
:1004D00002F001FA04F340EA0300294630BD21FA94
:1004E00004F0294630BD94F0000F83F4801306BF5A
:1004F00081F480110134013D4EE77FEA645C18BF4E
:100500007FEA655C29D094EA050F08BF90EA020FE4
:1005100005D054EA000C04BF1946104630BD91EADC
:10052000030F1EBF0021002030BD5FEA545C05D1DF
:100530004000494128BF41F0004130BD14F580041E
:100540003CBF01F5801130BD01F0004545F0FE4192
:1005500041F470014FF0000030BD7FEA645C1ABFC7
:10056000194610467FEA655C1CBF0B46024650EAFE
:10057000013406BF52EA033591EA030F41F400212A
:1005800030BD00BF90F0000F04BF0021704730B5B0
:100590004FF4806404F132044FF000054FF0000185
:1005A00050E700BF90F0000F04BF0021704730B546
:1005B0004FF4806404F1320410F0004548BF40421B
:1005C0004FF000013EE700BF42004FEAE2014FEA70
:1005D00031014FEA02701FBF12F07F4393F07F4F4B
:1005E00081F06051704732F07F4208BF704793F04E
:1005F0007F4F04BF41F40021704730B54FF4607461
:1006000001F0004521F000411CE700BF50EA010263
:1006100008BF704730B54FF000050AE050EA01020C
:1006200008BF704730B511F0004502D5404261EB7C
:1006300041014FF4806404F132045FEA915C3FF4BD
:10064000D8AE4FF003025FEADC0C18BF03325FEA5A
:10065000DC0C18BF033202EBDC02C2F1200300FA0B
:1006600003FC20FA02F001FA03FE40EA0E0021FA30
:1006700002F11444BDE600BF0000000000000000CD
:1006800070B54FF0FF0C4CF4E06C1CEA11541DBF28
:100690001CEA135594EA0C0F95EA0C0F00F0DEF8F3
:1006A0002C4481EA030621EA4C5123EA4C5350EAD8
:1006B000013518BF52EA033541F4801143F4801329
:1006C00038D0A0FB02CE4FF00005E1FB02E506F0BA
:1006D0000042E0FB03E54FF00006E1FB03569CF00F
:1006E000000F18BF4EF0010EA4F1FF04B6F5007F15
:1006F00064F5407404D25FEA4E0E6D4146EB060687
:1007000042EAC62141EA55514FEAC52040EA5E500F
:100710004FEACE2EB4F1FD0C88BFBCF5E06F1ED8B9
:10072000BEF1004F08BF5FEA500E50F1000041EBF0
:10073000045170BD06F0004646EA010140EA02009D
:1007400081EA0301B4EB5C04C2BFD4EB0C0541EABF
:10075000045170BD41F480114FF0000E013C00F3D4
:10076000AB8014F1360FDEBF002001F0004170BDF8
:10077000C4F10004203C35DA0C341BDC04F1140411
:10078000C4F1200500FA05F320FA04F001FA05F29D
:1007900040EA020001F0004221F0004110EBD3706A
:1007A00021FA04F642EB06015EEA430E08BF20EA96
:1007B000D37070BDC4F10C04C4F1200500FA04F339
:1007C00020FA05F001FA04F240EA020001F00041CB
:1007D00010EBD37041F100015EEA430E08BF20EA3E
:1007E000D37070BDC4F1200500FA05F24EEA020E86
:1007F00020FA04F301FA05F243EA020321FA04F0B5
:1008000001F0004121FA04F220EA020000EBD3706B
:100810005EEA430E08BF20EAD37070BD94F0000F6B
:100820000FD101F00046400041EB010111F4801F9F
:1008300008BF013CF7D041EA060195F0000F18BF50
:10084000704703F00046520043EB030313F4801F8C
:1008500008BF013DF7D043EA0603704794EA0C0F46
:100860000CEA135518BF95EA0C0F0CD050EA41065C
:1008700018BF52EA4306D1D181EA030101F00041D9
:100880004FF0000070BD50EA410606BF1046194601
:1008900052EA430619D094EA0C0F02D150EA01360D
:1008A00013D195EA0C0F05D152EA03361CBF10464E
:1008B00019460AD181EA030101F0004141F0FE41ED
:1008C00041F470014FF0000070BD41F0FE4141F471
:1008D000780170BD70B54FF0FF0C4CF4E06C1CEA71
:1008E00011541DBF1CEA135594EA0C0F95EA0C0F26
:1008F00000F0A7F8A4EB050481EA030E52EA0335E1
:100900004FEA013100F088804FEA03334FF0805501
:1009100045EA131343EA12634FEA022245EA11152E
:1009200045EA10654FEA00260EF000419D4208BFDF
:10093000964244F1FD0404F5407402D25B084FEA8C
:100940003202B61A65EB03055B084FEA32024FF438
:1009500080104FF4002CB6EB020E75EB030E22BF95
:10096000B61A754640EA0C005B084FEA3202B6EB55
:10097000020E75EB030E22BFB61A754640EA5C0004
:100980005B084FEA3202B6EB020E75EB030E22BF94
:10099000B61A754640EA9C005B084FEA3202B6EB95
:1009A000020E75EB030E22BFB61A754640EADC0054
:1009B00055EA060E18D04FEA051545EA16754FEAB6
:1009C00006164FEAC30343EA52734FEAC2025FEAD4
:1009D0001C1CC0D111F4801F0BD141EA00014FF063
:1009E00000004FF0004CB6E711F4801F04BF014334
:1009F0000020B4F1FD0C88BFBCF5E06F3FF6AFAE50
:100A0000B5EB030C04BFB6EB020C5FEA500C50F1DF
:100A1000000041EB045170BD0EF0004E4EEA113162
:100A200014EB5C04C2BFD4EB0C0541EA045170BD69
:100A300041F480114FF0000E013C90E645EA060EAD
:100A40008DE60CEA135594EA0C0F08BF95EA0C0FDB
:100A50003FF43BAF94EA0C0F0AD150EA01347FF423
:100A600034AF95EA0C0F7FF425AF104619462CE7FA
:100A700095EA0C0F06D152EA03353FF4FDAE10465D
:100A8000194622E750EA410618BF52EA43067FF4AE
:100A9000C5AE50EA41047FF40DAF52EA43057FF43E
:100AA000EBAE12E7000000000000000000000000B4
:100AB0004FF0FF3C06E000BF4FF0010C02E000BF2A
:100AC0004FF0010C4DF804CD4FEA410C7FEA6C5C0D
:100AD0004FEA430C18BF7FEA6C5C1BD001B050EAB0
:100AE000410C0CBF52EA430C91EA030F02BF90EA9B
:100AF000020F0020704710F1000F91EA030F58BF5A
:100B0000994208BF90422CBFD8176FEAE37040F0BB
:100B1000010070474FEA410C7FEA6C5C02D150EA59
:100B2000013C07D14FEA430C7FEA6C5CD6D152EA14
:100B3000033CD3D05DF8040B704700BF84461046D9
:100B400062468C461946634600E000BF01B5FFF7D8
:100B5000B7FF002848BF10F1000F01BD4DF808EDA8
:100B6000FFF7F4FF0CBF012000205DF808FB00BF79
:100B70004DF808EDFFF7EAFF34BF012000205DF8D3
:100B800008FB00BF4DF808EDFFF7E0FF94BF012020
:100B900000205DF808FB00BF4DF808EDFFF7CEFF21
:100BA00094BF012000205DF808FB00BF4DF808ED60
:100BB000FFF7C4FF34BF012000205DF808FB00BF31
:100BC0004FEA410212F5001215D211D56FF4787375
:100BD000B3EB625212D94FEAC12343F0004343EA18
:100BE000505311F0004F23FA02F018BF40427047F3
:100BF0004FF00000704750EA013005D111F000407D
:100C000008BF6FF0004070474FF00000704700BF12
:100C100053B94AB9002908BF00281CBF4FF0FF3163
:100C20004FF0FF3000F074B9ADF1080C6DE904CE5F
:100C300000F006F8DDF804E0DDE9022304B07047B7
:100C40002DE9F047089E04468846002B4BD18A4286
:100C5000154667D9B2FA82F24AB1C2F1200701FA09
:100C600002F320FA07F7954047EA030894404FEA59
:100C7000154E230CB8FBFEF71FFA85FC0EFB1788F8
:100C800043EA084307FB0CF1994209D9EB1807F135
:100C9000FF3080F01B81994240F21881023F2B44C3
:100CA0005B1AA4B2B3FBFEF00EFB103344EA03441C
:100CB00000FB0CFCA44509D92C1900F1FF3380F08E
:100CC0000781A44540F2048102382C4440EA0740E1
:100CD000A4EB0C0400271EB1D4400023C6E9004356
:100CE0003946BDE8F0878B4209D9002E00F0EB8031
:100CF0000027C6E9000138463946BDE8F087B3FA57
:100D000083F7002F47D18B4202D3824200F2FA8050
:100D1000841A61EB030301209846002EE0D0C6E957
:100D20000048DDE702B9FFDEB2FA82F2002A40F0A5
:100D30008F80491B4FEA154E1FFA85F80127B1FB3A
:100D4000FEFC230C0EFB1C1143EA014308FB0CF1D3
:100D5000994207D9EB180CF1FF3002D2994200F208
:100D6000CD808446591AA3B2B1FBFEF00EFB1014DD
:100D700043EA044408FB00F8A04507D92C1900F108
:100D8000FF3302D2A04500F2B6801846A4EB080457
:100D900040EA0C409FE7C7F1200CBB4022FA0CFE52
:100DA0004EEA030E01FA07F420FA0CF521FA0CF3CF
:100DB0004FEA1E482543B3FBF8F92C0C08FB193306
:100DC0001FFA8EFA44EA034309FB0AF49C4202FA32
:100DD00007F200FA07F10BD91EEB030309F1FF300C
:100DE00080F087809C4240F28480A9F1020973441C
:100DF0001B1BADB2B3FBF8F008FB103345EA03440C
:100E000000FB0AFAA24508D91EEB040400F1FF33E7
:100E10006BD2A24569D90238744440EA0940A0FB6C
:100E20000289A4EB0A044C45C2464B4654D351D028
:100E3000002E69D0B1EB0A0564EB030404FA0CFC44
:100E4000FD40FC404CEA0505C6E90054002747E791
:100E5000C2F1200320FA03F7954001FA02F021FACB
:100E600003F34FEA154E3843010CB3FBFEF71FFAAC
:100E700085F80EFB173341EA034107FB08F38B4269
:100E800004FA02F407D9691807F1FF3C2FD28B420C
:100E90002DD9023F2944CB1A81B2B3FBFEF00EFBE1
:100EA000103341EA034100FB08F38B4207D969186C
:100EB00000F1FF3C17D28B4215D902382944C91AD8
:100EC00040EA07473BE73746304609E70746E7E68B
:100ED0001846FBE64145ABD2B8EB020A69EB0E02BD
:100EE00001381346A4E76046E9E7184695E76746E8
:100EF000D1E781467CE702382C4447E7ACF1020C8D
:100F00002B442FE7384608E73746E9E600000000A3
:100F1000704700BF0000000000000000000000005B
:100F2000844641EA000313F003036DD1403A41D3F4
:100F300051F8043B40F8043B51F8043B40F8043BB3
:100F400051F8043B40F8043B51F8043B40F8043BA3
:100F500051F8043B40F8043B51F8043B40F8043B93
:100F600051F8043B40F8043B51F8043B40F8043B83
:100F700051F8043B40F8043B51F8043B40F8043B73
:100F800051F8043B40F8043B51F8043B40F8043B63
:100F900051F8043B40F8043B51F8043B40F8043B53
:100FA00051F8043B40F8043B51F8043B40F8043B43
:100FB000403ABDD2303211D351F8043B40F8043BE3
:100FC00051F8043B40F8043B51F8043B40F8043B23
:100FD00051F8043B40F8043B103AEDD20C3205D3F3
:100FE00051F8043B40F8043B043AF9D2043208D0EB
:100FF000D2071CBF11F8013B00F8013B01D30B885D
:1010000003806046704700BF082A13D38B078DD03A
:1010100010F003038AD0C3F10403D21ADB071CBF0C
:1010200011F8013B00F8013B80D331F8023B20F876
:10103000023B7BE7043AD9D3013A11F8013B00F8AF
:10104000013BF9D20B7803704B7843708B78837037
:101050006046704700000000000000000000000033
:1010600090F800F06DE9024520F007016FF0000CE8
:1010700010F0070491F820F040F049804FF0000490
:101080006FF00700D1E9002391F840F000F108006B
:1010900082FA4CF2A4FA8CF283FA4CF3A2FA8CF3A3
:1010A0004BBBD1E9022382FA4CF200F10800A4FA0A
:1010B0008CF283FA4CF3A2FA8CF3E3B9D1E904235E
:1010C00082FA4CF200F10800A4FA8CF283FA4CF395
:1010D000A2FA8CF37BB9D1E9062301F1200182FA4F
:1010E0004CF200F10800A4FA8CF283FA4CF3A2FA55
:1010F0008CF3002BC6D0002A04BF04301A4612BA63
:10110000B2FA82F2FDE8024500EBD2007047D1E965
:10111000002304F00305C4F100004FEAC50514F0F4
:10112000040F91F840F00CFA05F562EA05021CBFC5
:1011300063EA050362464FF00004A9E700000000DF
:1011400001F0FF01102A2BDB10F0070F08D010F878
:10115000013B013A8B422DD010F0070F42B3F6D17C
:10116000F0B441EA012141EA014122F007047FF095
:1011700000070023F0E80256083C85EA010586EAEC
:10118000010685FA47F5A3FA87F586FA47F6A5FA28
:1011900087F68EB9EED1F0BC01F0FF0102F0070234
:1011A00032B110F8013B013A83EA010313B1F8D1DF
:1011B0000020704701387047002D06BF35460338C0
:1011C000073815F0010F07D1013015F4807F02BFF9
:1011D000013015F4C03F0130F0BC0138704700BF4A
:1011E0004FEA410C7FEA6C5C02D150EA013C0AD123
:1011F0004FEA430C7FEA6C5C02D152EA033C02D115
:101200004FF0000070474FF00100704700000000F1
:1012100010B50D4C82B0236801934FF4FA7002F0C0
:1012200017FF01F00DFF01F0FBFA01F029FB019A15
:1012300023689A4206D14FF4FA7002B0BDE810401C
:1012400002F006BF00F08CF800080020000000004B
:1012500070B53B4B82B01B68019304F021F902F09A
:10126000B7F800F045FD374A3749384801F0D0FF5C
:1012700001F096FE01F084FA01F072F800F0C8FA6D
:10128000202383F31188324C03F0EAF902F0A8F925
:10129000A36A02F0C5F903F0FBF92368A34204D066
:1012A000A2699B6892689A4246D3002383F311880F
:1012B000FFF7AEFF00F034F900F072FA254E20255A
:1012C000022001F08DFA0A2002F0C2FE022001F095
:1012D00007FB85F3118803F0C3F902F081F9A36AD3
:1012E00002F09EF903F0D4F92368A34207D0A26963
:1012F0009B6892689A4202D2304602F0D1F80023ED
:1013000083F3118885F3118803F0AAF902F068F9D4
:10131000A36A02F085F903F0BBF92368A34207D062
:10132000A2699B6892689A4202D2304602F0B8F8ED
:10133000002383F31188C3E7064802F0B1F8B4E74D
:1013400000080020040800200C08002000120020E3
:10135000681A002080FF0008000000000000000064
:1013600000B5084B83B01A680192019A1B689A4233
:1013700005D1054803B05DF804EB02F091B8FFF722
:10138000EFFF00BF0008002090FF000800000000F1
:1013900007EE900A00B5F8EEE77A234B37EEC00A65
:1013A000F1EE007AB0EEC07A83B0B4EEE77A1A6854
:1013B0000192F1EE10FA2CD41C4A9FED1D7AD2ED69
:1013C000007A70EE277AF4EEC77AF1EE10FA1BDCA1
:1013D0009FED187AF4EEC77AF1EE10FA1DD5DFED25
:1013E000167A82ED007A9FED157AE0EE077AF1EE3B
:1013F000677AFDEEE77A17EE900A019A1B689A4227
:1014000009D103B05DF804FB82ED007ADFED0C7AC0
:10141000E9E70020F1E7FFF7A3FFB3EE047AC2ED9E
:10142000007A67EE877ADEE7000800200C120020C1
:1014300000009643000096C30080BBC50000164321
:101440000080BB450000000000000000000000001C
:1014500030B52D4C83B022680192012826D0B0B15E
:101460004FF4FA7000F004FF4FF4FA7000F0E8FE59
:101470004FF4FA7000F0FCFE019A23689A421DD1E5
:101480004FF4FA7003B0BDE8304000F0D9BE06203A
:1014900001F0F6FD9FED1D0AFFF77AFF054640F2C9
:1014A0004C439D420CDD40F26220E3E701F0E8FD91
:1014B0009FED160AFFF76CFF4542F0E7FFF750FF7C
:1014C000A3F698039D42B8BF4FF4C370D2DB07EE7A
:1014D000905A9FED0F7AF8EEE76ADFED0E7AE6EEAE
:1014E000877AFDEEE77A17EE903A18B200F0C0FE68
:1014F0004FF4FA7000F0A4FE002DB9D0019A2368D1
:101500009A42DBD103B030BD0008002000006643E2
:10151000CDCCCC3D0000FA430000000000000000EC
:1015200030B5134B83B01B680193002000F0E8FE38
:10153000002000F0FDFE0021084600F051F83324A1
:101540000120FFF785FF013CFAD100F0A9FE054616
:1015500000F0BEFE01B228B200F042F8204600F0D2
:10156000CFFE204600F0E4FE00F01AF9E7E700BFE6
:101570000008002000000000000000000000000043
:1015800010B5114C82B02368019310200BF028F89D
:1015900068B10E4A136883B10D4B1A68D06082603F
:1015A0000C4A18601388002101331380C160019A2E
:1015B00023689A4205D102B010BD83601060044BCD
:1015C000EEE7FFF7CDFE00BF000800201812002054
:1015D0001012002014120020000000000000000083
:1015E0002DE9F0472DED068B6B4D84B02B680393EE
:1015F00007460E46FFF7C4FFD0F808A00446BAF12C
:10160000000F00F0C380F31B07EE903ADFED636A32
:101610009AED017AF8EEE77A87EEA68A38EE078A25
:1016200080ED018A18EE100AFEF7CEFF41EC100B98
:1016300041EC190B09F0E4FDDAED018AB0EE40AAA5
:10164000F0EE60AAB0EE490AF0EE690A09F078FD02
:10165000B4EE688AF1EE10FAB0EE409AF0EE609ABD
:1016600037D13846FEF79EFF0646BAF900000F460E
:10167000FEF798FF53EC1A2B8046894630463946D0
:10168000FEF7FEFF02460B4640464946FEF73CFE8B
:10169000FFF796FA2080BAF90200FEF783FF53ECB9
:1016A000192B8046894630463946FEF7E9FF024647
:1016B0000B4640464946FEF729FEFFF781FA608057
:1016C000039A2B689A4264D104B0BDEC068BBDE846
:1016D000F0873E4406EBD676761007EE906A38EE39
:1016E000688AF8EEE77AC7EE887A17EE900AFEF776
:1016F0006BFF804618EE900A8946FEF765FF41ECC5
:10170000100B09F01DFD53EC102BBAF90000CDE9C8
:101710000023FEF747FFDDE9002306460F4651ECA4
:10172000190BFEF7F1FD42464B46FEF7A9FF0246B4
:101730000B4630463946FEF7E9FDFFF741FA2080B7
:10174000DAF80400FEF740FF41EC100B09F058FDF9
:1017500053EC102BBAF90200CDE90023FEF722FF6B
:10176000DDE9002306460F4651EC1A0BFEF7CCFDCF
:1017700042464B46FEF784FF02460B46304639464A
:10178000FEF7C4FDFFF71CFA608099E7C0E900AAE4
:1017900096E7FFF7E5FD00BF00080020B113CB433B
:1017A00030B5154B154D1C682B6883B0019353233E
:1017B0008DF80330C4B10DF1030000F041F810487A
:1017C00000F05EF8E3684BB1204600F059F8A01C29
:1017D00000F056F8E468E368002BF5D1204600F0ED
:1017E0004FF8A01C00F04CF8019A2B689A4201D1E6
:1017F00003B030BDFFF7B4FD181200200008002030
:101800001412002000000000000000000000000092
:1018100000B5084B83B01A680192019A1B689A427E
:1018200006D10549054803B05DF804EB05F058B949
:10183000FFF796FD00080020200800209C280020CB
:1018400010B50A4B82B01A680192019A1B689A423D
:101850000AD1074B1A68146801460122184623462C
:1018600002B0BDE810401847FFF77AFD00080020DD
:101870009C28002000000000000000000000000084
:1018800010B50A4B82B01A680192019A1B689A42FD
:101890000AD1074B1A6814680146022218462346EB
:1018A00002B0BDE810401847FFF75AFD00080020BD
:1018B0009C28002000000000000000000000000044
:1018C00030B5104D81682B680F4A83B001930B68C7
:1018D00023F001030B608168946A03E0936A1B1B89
:1018E000C72B09D8086810F00100F7D1019A2B68BE
:1018F0009A4204D103B030BD4FF0FF30F6E7FFF756
:101900002FFD00BF00080020681A00200000000022
:10191000F0B5284D83B02B68019302F069FE01F009
:10192000DFFE254B1E69F20715D55A69234C42F09C
:1019300001025A612778BB1F012B2AD9052263684F
:1019400022701B680BB120469847042F27D0022F26
:1019500025D003232370B30710D5174A174C5369BA
:1019600043F0020353612378032B1DD063689B6807
:101970000622227013B101211048984701F0D8FEC9
:10198000019A2B689A4213D103B0BDE8F04003F0EE
:1019900047BD019A2B689A420AD103B0F0BD0223D9
:1019A0002370B307EAD5D8E72046FFF789FFDDE7C4
:1019B000FFF7D6FC00080020000005501C12002094
:1019C00070B5164E16483368154D82B005224FF497
:1019D0008071019307F0FCFD20246B6983F4807310
:1019E0006B61012002F034FB631E13F0FF04F4D19D
:1019F0004FF4807140F206222983094807F0E8FD80
:101A0000019A33689A4206D10649074802B0BDE8F8
:101A1000704004F045B8FFF7A3FC00BF00080020A9
:101A200000040240B0FF0008E8240020000000008D
:101A300000B50C4A0C4B1278196883B0012A019149
:101A4000019A1B6804D09A4209D103B05DF804FBE7
:101A50009A4204D103B05DF804EBFFF7B1BFFFF782
:101A60007FFC00BFE82400200008002000000000E8
:101A70002DE9F041224C234E88B0002335688DF8C3
:101A80001830804620468DF814101746079504F04C
:101A90001FF92378012B0CD00420012306AACDE9DD
:101AA00001300092414605AA204604F0A1F80546FF
:101AB00068B9134804F02CF99DF818303B700020E9
:101AC000079A33689A4218D108B0BDE8F0812046E1
:101AD00004F076F823780C4A052B106004D00848EF
:101AE00004F016F968B2EBE7204604F021F82378F9
:101AF000012BF4D1FFF764FFF1E7FFF731FC00BFE2
:101B0000E82400200008002034120020000000001B
:101B1000F0B5214C214E89B0336807930746002564
:101B200020468DF818108DF819208DF8145004F007
:101B3000CFF82378012B0CD0042205AB019502923B
:101B400000933946022306AA204604F051F80546C0
:101B500048B9114804F0DCF80020079A33689A422B
:101B600017D109B0F0BD204604F02AF823780C4ABA
:101B7000052B106004D0084804F0CAF868B2ECE7FE
:101B8000204603F0D5FF2378012BF4D1FFF718FF8F
:101B9000F1E7FFF7E5FB00BFE82400200008002084
:101BA00034120020000000000000000000000000CF
:101BB0002DE9F0431F4C204E89B035688DF8171081
:101BC0000746204690469946079504F081F821780B
:101BD00001290CD004230293CDE900893946012361
:101BE0000DF11702204604F003F8054650B91148DC
:101BF00004F08EF80020079A33689A4218D109B091
:101C0000BDE8F083204603F0DBFF23780B4A052B69
:101C1000106004D0074804F07BF868B2EBE7204678
:101C200003F086FF2378012BF4D1FFF7C9FEF1E71B
:101C3000FFF796FBE8240020000800203412002063
:101C40002DE9F043254E83B034680194042A9DF8B1
:101C50002890144605460F46984639D9B9F1000F29
:101C600014BF00224FF08052640002EB0863013C75
:101C70001C4405F00F0527F01F07202383F311886C
:101C800002F0EEFC3D4301F0ABFC154B1035DD607E
:101C90001C6101F0C5FC02F0FBFC124B1A689A4271
:101CA00004D0996993688A689A420DD3002383F31C
:101CB0001188BFF36F8FBFF34F8F019A33689A4239
:101CC0000AD103B0BDE8F083074801F0E9FBEDE776
:101CD000064801F0E5FBC1E7FFF742FB00080020E2
:101CE00090ED00E0681A0020400001082000010883
:101CF00030B5224D224C2B68224A85B0039363688D
:101D000043F004036360536A43F480335362202337
:101D100083F3118802F0A4FC01F062FC17221A4B35
:101D2000E260236101F07CFC02F0B2FC174B1A6800
:101D30009A4204D0996993688A689A4218D300201D
:101D400080F31188BFF36F8FBFF34F8F03231D22E2
:101D500000904FF00051FFF773FF094A536843F0BA
:101D600001035360039A2B689A4205D105B030BD38
:101D7000074801F095FBE2E7FFF7F2FA00080020C0
:101D800090ED00E000ED00E009000010681A00206E
:101D900040000108000000000000000000000000FA
:101DA00070B51A4D1A4C1B4E0FCD0FC49EB02A6849
:101DB000336822801D93EFF30981682203A8FFF79F
:101DC000AFF8154B9D6AAA0714D4EB0708D5124B40
:101DD00008995B6B114A00910D4880210AF018FFA9
:101DE0001D9A33689A420FD109481EB0BDE8704071
:101DF00001F056BB099A5B6B0092A4F11000084AEF
:101E000080210AF005FFE0E7FFF7AAFA04000108C5
:101E1000381200200008002000ED00E0E0FF00087C
:101E2000C0FF0008000000000000000000000000EB
:101E300000B51F4B0278196883B00191E2B11D4AC9
:101E40004FF4005111834278EAB11A4A4FF480519D
:101E500011838278F2B1174A4FF480411183C2781E
:101E6000FAB9144A4FF400415183019A1B689A420F
:101E70001CD103B05DF804FB0E4A4FF400515183AE
:101E80004278002AE1D10B4A4FF480515183827885
:101E9000002AE0D1074A4FF480415183C278002ADA
:101EA000DFD0044A4FF400411183DEE7FFF758FA10
:101EB00000080020001002400000000000000000A8
:101EC00000B51F4B0278196883B00191E2B11D4A39
:101ED0004FF4007111834278EAB11A4A4FF48071CD
:101EE00011838278F2B1174A4FF400611183C278EE
:101EF000FAB9144A4FF480615183019A1B689A42DF
:101F00001CD103B05DF804FB0E4A4FF400715183FD
:101F10004278002AE1D10B4A4FF4807151838278D4
:101F2000002AE0D1074A4FF400615183C278002AA9
:101F3000DFD0044A4FF480611183DEE7FFF710FA27
:101F40000008002000100240000000000000000017
:101F500030B50C4A0C4B116883B04FF40055019119
:101F60004FF480544FF400414FF480405D835C8314
:101F70005883598301991368994201D103B030BD48
:101F8000FFF7EEF9000800200010024000000000FA
:101F900030B50C4A0C4B116883B04FF400750191B9
:101FA0004FF480744FF480614FF400605D835C8374
:101FB0005883598301991368994201D103B030BD08
:101FC000FFF7CEF9000800200010024000000000DA
:101FD00010B50B4C0B48236882B099220021019365
:101FE00003F0AEFF019A23689A4206D1054800210A
:101FF00002B0BDE8104004F08BB8FFF7B1F900BFA4
:102000000008002048280020000000000000000018
:1020100010B50B4C0B48236882B099220021019324
:1020200003F08EFF019A23689A4206D105480021E9
:1020300002B0BDE8104004F06BB8FFF791F900BFA3
:1020400000080020642800200000000000000000BC
:1020500000B5084B83B01A680192019A1B689A4236
:1020600006D10548002103B05DF804EB03F0B8BFCA
:10207000FFF776F900080020482800200000000043
:1020800000B5084B83B01A680192019A1B689A4206
:1020900006D10548002103B05DF804EB03F0A0BFB2
:1020A000FFF75EF90008002064280020000000000F
:1020B00070B51A4C1A4E2378326882B0022B019206
:1020C000A26811D165781748013505F0070500EBC6
:1020D0008500904763686570013B6360019A3368CF
:1020E0009A4219D102B070BD012B08D00199336812
:1020F000994211D10C4802B0BDE870401047657894
:102100000848013D05F0070500EB8500904763682E
:10211000657001336360E1E7FFF722F9D012002018
:1021200000080020E0000108D000010800000000C5
:1021300070B51A4C1A4E2378326882B0012B019286
:10214000A26811D165781748013505F0070500EB45
:10215000850090476368657001336360019A336856
:102160009A4219D102B070BD022B08D00199336890
:10217000994211D10C4802B0BDE870401047657813
:102180000848013D05F0070500EB850090476368AE
:102190006570013B6360E1E7FFF7E2F8B8120020E9
:1021A00000080020E0000108D00001080000000045
:1021B00030B51F4D85B02B68039340F24C439942D4
:1021C000044626DCA3F69803994211DB4B00002B52
:1021D00029D10370036998474FF47A71039A2B68E9
:1021E0009A421ED1606905B0BDE8304003F060BE80
:1021F000104B02225B42227040F2892293420E4928
:1022000091FBF3F189B207DC0191E36898470199EA
:10221000E4E7012303702D21019123699847019977
:10222000DCE7FFF79DF8E4DD01220270E4E700BF80
:102230000008002068F7FFFFA086010000000000F2
:1022400000B5084B83B01A680192019A1B689A4244
:1022500006D10146044803B05DF804EBFFF7A8BFC0
:10226000FFF77EF800080020B812002000000000F0
:1022700000B5084B83B01A680192019A1B689A4214
:1022800006D10146044803B05DF804EBFFF790BFA8
:10229000FFF766F800080020D012002000000000C0
:1022A00000B5094B094A1968506883B000EBD0703B
:1022B0000191019A1B689A4203D1401003B05DF866
:1022C00004FBFFF74DF800BF00080020B812002003
:1022D00000B5094B094A1968506883B000EBD0700B
:1022E0000191019A1B689A4203D1401003B05DF836
:1022F00004FBFFF735F800BF00080020D0120020D3
:1023000000B5084B08491A6883B040000192019A51
:102310001B6848609A4202D103B05DF804FBFFF7E6
:102320001FF800BF00080020B812002000000000C5
:1023300000B5084B08491A6883B040000192019A21
:102340001B6848609A4202D103B05DF804FBFFF7B6
:1023500007F800BF00080020D01200200000000095
:1023600070B51D4E1D4A1E4B30681E491E4C9160B3
:1023700082B00021D46001901C4C1D481D4D9D6011
:10238000117051705160106154611B481B4A1C4D03
:10239000D8601C48197059705960C3E90425FFF7CB
:1023A00047FD1848FFF78CFD1749204603F030FD24
:1023B000204603F065FE2846144903F029FD019AE2
:1023C00033689A4205D1284602B0BDE8704003F058
:1023D00057BEFEF7C5FF00BF00080020D012002046
:1023E000B8120020311E0008D11F00084828002024
:1023F00051200008C11E000811200008812000089B
:1024000064280020D0000108900001085000010855
:102410000A490B4B09680B4A82B0202001914021E8
:1024200058834FF4806559834FF400644FF4804023
:1024300004215D835C8358835183FEE700080020FC
:10244000000C0240000402400000000000000000F8
:102450002DE9F04F7D4C7E4AA3697E489A617E4A01
:10246000AFB0012312682D920CA91A4602F018FC95
:1024700011AD0AAB50222946009216A81A46CDE9A2
:102480001155CDE90A330025744B1595CDE9135547
:1024900000F0D6FE16A9724A724800F0F9FEA36950
:1024A00093F8216016F0040640F083806B4FDFF84C
:1024B000E0B1DFF8E091DFF8E08107F13403B246E4
:1024C000CDE9076609933FE05022644916A800F061
:1024D0000FFF99F80030B3B1634A1378002B70D026
:1024E000012B10D1614B07981B78614A03F114014D
:1024F000127837F911C008990130C0B261448242A4
:102500000790089171D098F80030A3B1594A137818
:10251000002B60D0012B0ED1574B584A1B781278F4
:1025200007EB43010AF1010AB1F92E105FFA8AFAAA
:1025300052450E4472D0291D284601F0C9FDA369F9
:1025400093F821305B0734D4202383F3118802F001
:1025500087F801F045F8A56A01F062F802F098F8F2
:102560002368A34207D0A2699B6892689A4202D26C
:10257000434800F095FF002383F311889BF8003057
:10258000002BA1D03F48099900F11203A0F11202DB
:102590000493A0F10C03CDE90201CDE90032A0F1D2
:1025A0003A01A0F11E03A0F122022E3800F060FAD9
:1025B0008AE7294B2D9A1B689A4245D12FB0BDE876
:1025C000F08F2A4908930978079307EB410101200E
:1025D0008B86107097E72849097807EB41010120A5
:1025E0001E464B879A461070A5E70A4692FBF0F20A
:1025F000254890F800E003F1200112B24FF0000CE2
:10260000BEF1010F27F8112089F800C07FF47BAFDD
:1026100007EB430380F800C09A8674E71B4896FBDB
:10262000FAF290F800E007EB430112B24FF0000C11
:10263000BEF1010FA1F8462088F800C07FF47BAFFF
:1026400080F800C04A8776E7FEF78AFE681A002005
:102650000001010830120020000800207816002038
:102660002001010800120020E9120020EA120020D7
:10267000EC120020EE120020EF120020F1120020D8
:1026800010010108B2160020EB120020F012002009
:10269000F8120020E8120020ED12002000000000D7
:1026A00070B5124B124E1B78326882B0044601920C
:1026B0007BB11048104A114D114B0470002010706E
:1026C00001222A701970142001F0C2FC2B78002B13
:1026D000F9D1019A33680B4920349A4231F9140038
:1026E00001D102B070BDFEF73BFE00BFF812002022
:1026F00000080020EA120020E9120020E812002061
:10270000EC120020781600200000000000000000FD
:1027100070B5124B124D1B782A6882B006460192A2
:102720007BB11048104A114C114B067000201070FC
:10273000012222701970142001F08AFC2378002BEA
:10274000F9D10C48019A2B6800EB46009A42B0F987
:10275000460001D102B070BDFEF702FEF812002063
:1027600000080020EF120020EE120020ED120020E1
:10277000F112002078160020000000000000000088
:1027800030B5124D124C2B78226885B003922BB1D4
:10279000039A23689A4216D105B030BDFFF748F975
:1027A0004FF4C84000F0BCF808B901232B70002397
:1027B00000930848084B40224FF45E7101F0F0FB93
:1027C000064B1860E4E7FEF7CBFD00BFF8120020CF
:1027D000000800200013002051240008F4120020FB
:1027E00000B50A4B83B01A68019202289BBF084AC1
:1027F0001430002032F91000019A1B689A4202D16D
:1028000003B05DF804FBFEF7ABFD00BF000800203D
:10281000781600200000000000000000000000000A
:1028200070B5114B114C1B78226882B0019293B1A4
:102830000F4D0126322100202E70FFF731FF32218B
:1028400030462E70FFF72CFF322102202E70FFF74A
:1028500027FF00232B70019A23689A4201D102B00E
:1028600070BDFEF77DFD00BFF812002000080020BB
:10287000EB1200200000000000000000000000003B
:1028800070B5114B114C1B78226882B0019293B144
:102890000F4D0126322100202E70FFF739FF322123
:1028A00030462E70FFF734FF322102202E70FFF7E2
:1028B0002FFF00232B70019A23689A4201D102B0A6
:1028C00070BDFEF74DFD00BFF8120020000800208B
:1028D000F0120020000000000000000000000000D6
:1028E00000B50B4B83B01A680192022896BF094AC3
:1028F0009FED090A02EB8000019A1B6898BF90EDDA
:10290000030A9A4202D103B05DF804FBFEF728FDEA
:1029100000080020781600200000000000000000E1
:10292000F0B5504D504C2B6883B00746019320788A
:10293000002380226B218DF80330FFF7E9F858B1AE
:102940002378682B0CBF6920682080226B212070BF
:10295000FFF7DEF800287CD1012001F079FB682622
:1029600002E0012001F074FB0DF103026B212078DD
:10297000FFF77EF878B12378682B0CBF69206820B8
:102980000DF103024FF06B010CBF20702670FFF7B2
:102990006FF800285DD19DF90330002BE1DB7E004C
:1029A00006F0180632461B212078FFF7B1F858B11F
:1029B0002378682B0CBF6920682032461B212070C9
:1029C000FFF7A6F8002844D1FE00012006F0180603
:1029D00001F03EFB32461C212078FFF799F850B1F8
:1029E0002378682B0CBF6920682032461C21207098
:1029F000FFF78EF868BB0120C7F3072701F028FB1B
:102A00003A4619212078FFF783F850B12378682BD4
:102A10000CBF692068203A4619212070FFF778F82A
:102A2000B8B9012001F014FB012238212078FFF70A
:102A30006FF850B12378682B0CBF69206820012201
:102A400038212070FFF764F818B9012001F000FB6D
:102A50000020019A2B689A4201D103B0F0BDFEF725
:102A60007FFC00BF000800202C08002000000000B0
:102A70002DE9F04F87B01E46DDE912B3DFF828924A
:102A8000DFF828A20393149BD9F80040029207466E
:102A9000884601939AF800007C4A059416233A214F
:102AA000DDE91045FFF784F878B19AF80030774AED
:102AB000682B0CBF6920682016233A218AF8000091
:102AC000FFF776F8002840F0D480019B1BB16F4BD4
:102AD000019A1B781370B8F1000F4AD06B4A9FED32
:102AE0006C6A92F901109378DFED6A6ADFED6A5A39
:102AF00043EA01235B421BB22B80117992F9030058
:102B000041EA00214942698092F90510927942EA2E
:102B1000012252420399AA80B1F900209B1A07EEC4
:102B2000103AB8EEC77A27EE067A27EE267A88EDB5
:102B3000007AB1F90220B5F902309B1A07EE103A7B
:102B4000B8EEC77A27EE067A27EE267A88ED017A64
:102B5000B5F90430B1F904209B1A07EE903AF8EE6B
:102B6000E77A77EEE57A67EE867A67EEA67AC8EDC1
:102B7000027A0298A8B1454A9FED486A92F9071077
:102B8000137A43EA012307EE903AF8EEE77AF3EE80
:102B9000056A77EEE67A87EE867A77EE267AC0EDDA
:102BA000007A002F39D0394ADFED3D6A92F90910D9
:102BB000937A43EA0123238092F90B00117B41EAC7
:102BC0000021618092F90D10927B42EA0122A280DD
:102BD000BBF900209B1A07EE903AF8EEE77A67EE11
:102BE000A67AC7ED007ABBF90220B4F902309B1A2D
:102BF00007EE103AB8EEC77A27EE267A87ED017A0B
:102C0000B4F90430BBF904209B1A07EE903AF8EEB1
:102C1000E77A67EEA67AC7ED027A96B31B4ADFED34
:102C2000216A92F91010D37B43EA012307EE103A90
:102C3000B8EEC77A002027EE267A86ED007A92F960
:102C40001210537C43EA012307EE103AB8EEC77A1C
:102C500027EE267A86ED017A92F91410D37C43EAA6
:102C6000012307EE903AF8EEE77A67EEA67AC6ED12
:102C7000027A059AD9F800309A4204D107B0BDE82B
:102C8000F08F3046F5E7FEF76BFB00BFC81600205B
:102C90000AE81C4100008038000080465CEFA64333
:102CA00058A00B390000163E000800202C08002018
:102CB00010B51E491E4A0B78106882B0013B019086
:102CC000072B0AD8DFE803F012151C1F26290F0472
:102CD00018480824012304830B7001991368994252
:102CE00021D102B010BD08230B70F6E702230B7050
:102CF000F3E711484FF48054032304830B70ECE78F
:102D000004230B70E9E70C484FF480440523048347
:102D10000B70E2E706230B70DFE706480424072365
:102D200004830B70D9E7FEF71BFB00BF601A00207D
:102D300000080020001002400004024000000000D3
:102D400030B50C4B0C4918680C4A83B04FF48045E1
:102D500001904FF480504883042408204D8354830D
:102D60005083019A1B689A4201D103B030BDFEF72F
:102D7000F7FA00BF000800200004024000100240E3
:102D80002DE9F04F4E4B4F4A9B694F499961A5B0D1
:102D900007AE05AD80231768009331462A4600240C
:102DA0000CA84A4B2397CDE90766CDE90555CDE937
:102DB00009440B9400F044FA0CA9454A4548434C99
:102DC000454DDFF83481DFF834B1DFF834A100F08D
:102DD0005FFA04F11C0604F16007A146504601F0B9
:102DE000DFFC2A682B69226063602A6A2B6BA26071
:102DF000E3606A686B69226163616A6A6B6BA261F6
:102E0000E361AA68AB6922626362AA6AAB6BA262E1
:102E1000E362EA68EB6922636363EA6AEB6B2F495A
:102E2000A263E36351F8043F0A6AB142A3EB0203D1
:102E30000B64F7D1802249460CA800F059FA98F8A3
:102E40000030002BCAD09BF8003033B3012BC5D122
:102E5000DFF8B0C02248614650F8042B51F8043F17
:102E6000B84213440B60F7D11E4A13780133DBB22A
:102E7000642B1370B2D11C495CF8043F1B4A82FBDF
:102E80000302DB17C3EB621341F8043B184B9C456C
:102E9000F2D1002388F80030A0E71946202212481A
:102EA000039309F065FE039B12481946202209F09E
:102EB0005FFE0C49039B0B7001228BF800208DE70D
:102EC000681A002000080020300101086417002063
:102ED0007001010800120020001700206017002078
:102EE000A417002041170020C41700201F85EB51B4
:102EF00060170020441700204017002042170020D0
:102F000030080020401700200000000000000000F2
:102F100070B502691E4D52882B6882B006460C4679
:102F20001C4801939200002109F022FE33695B885E
:102F30005BB1184AA11E002331F8020F42F8040BBE
:102F40003069408801339842F6D8202383F31188F2
:102F500001F0B6FB00F084FB00F012FC0E48836821
:102F6000002B0FDD00F09CFB01F0C2FB002383F37C
:102F70001188019A2B68094901209A42087004D1EE
:102F800002B070BD01F044FCECE7FEF7E9F900BFC8
:102F9000000800200017002030080020601A0020E0
:102FA00070B51F4D1F4C2E78236884B0012E0393FB
:102FB00005D0039A23689A422FD104B070BD002136
:102FC000284602F085FB284602F042FC334628469C
:102FD000154A164902F0FCFB1549164802F018FF85
:102FE0004FF496720021134802F0AAFF0021114805
:102FF00003F08EF80F4803F043F831464FF4827225
:103000000C4802F09DFF0023009340220A4B0B481E
:103010004FF41E7100F0C4FFCBE7FEF7A1F900BF2B
:10302000C421002000080020E01600204001010813
:10303000800101082C280020812D0008E8170020BD
:1030400030B50C4D0C4A2B680C4C83B00021019319
:10305000012311702370142000F0FAFF2378002B55
:10306000F9D1019A2B689A4201D103B030BDFEF725
:1030700077F900BF00080020421700204017002009
:1030800000B50A4B83B01A68019207289BBF084A13
:103090001030002052F82000019A1B689A4202D199
:1030A00003B05DF804FBFEF75BF900BF00080020E9
:1030B0006417002000000000000000000000000075
:1030C00000B5084B83B01A680192019A1B689A42B6
:1030D00005D1054803B05DF804EB01F0C1BCFEF773
:1030E0003FF900BF000800203C080020000000005D
:1030F00000B5084B83B01A680192019A1B689A4286
:1031000005D1054803B05DF804EB01F0E1BCFEF722
:1031100027F900BF000800203C0800200000000044
:1031200070B50D4C82B0236801930D1E06460DDD6F
:10313000284602F0EDF818B90C2333604FF0FF3049
:10314000019A23689A4205D102B070BD034800F08D
:10315000A7F9EDE7FEF704F900080020C001010817
:1031600000B5064B83B01A680192019A1B689A4217
:1031700002D103B05DF804FBFEF7F2F8000800206E
:1031800000B5074B83B01A680192019A1B689A42F6
:1031900004D103B05DF804EB01F062BCFEF7E0F887
:1031A00000080020000000000000000000000000F7
:1031B00000B5074B83B01A680192019A1B689A42C6
:1031C00004D103B05DF804EB01F082BCFEF7C8F84F
:1031D00000080020000000000000000000000000C7
:1031E00000B5074B83B01A680192019A1B689A4296
:1031F00004D103B05DF804EB01F01ABDFEF7B0F89E
:103200000008002000000000000000000000000096
:1032100010B5084B82B01C68019400240460019C26
:103220001B689C42C0E9011201D102B010BDFEF73B
:1032300097F800BF00080020000000000000000018
:103240002DE9F0430E4D83B02C6801940446994655
:103250000F46164610304C220021DDF8288009F078
:1032600087FCC4F80090019A2B68E6609A42C4E992
:10327000018702D103B0BDE8F083FEF771F800BF0B
:103280000008002000000000000000000000000016
:10329000F0B5144E83B001F1100317463268019265
:1032A0000446412218460D46002109F061FC3946CA
:1032B000402209F0F5FC6068FFF762FF236803B164
:1032C000AB652560A068FFF78BFF019A33689A42CF
:1032D00005D1606803B0BDE8F040FFF769BFFEF7B5
:1032E0003FF800BF000800200000000000000000C0
:1032F000F0B51C4E436883B0054693423068019098
:1033000006D20020019A33689A4229D103B0F0BD59
:1033100014460F46A868FFF733FF2246394628684F
:10332000FDF7FEFD012385F85130E868FFF758FFEF
:103330006C6D84B123681868FFF722FF23689D60D5
:1033400023685868FFF74CFF23681868FFF730FFC1
:103350006468002CEED1A868FFF72AFF0120D1E7AE
:10336000FDF7FEFF00080020000000000000000044
:1033700000B5064B83B01A680192019A1B689A4205
:1033800002D103B05DF804FBFDF7EAFF000800205E
:10339000024B82B01B680193FEE700BF00080020CB
:1033A00000B5044B04481B6883B0019300F078F823
:1033B000FEE700BF00080020D00101080000000067
:1033C000024B82B01B680193FEE700BF000800209B
:1033D000F0B5294E294B3268294885B00024039264
:1033E0009C60D968274A4FF6FF0529400A43DA60F6
:1033F000C2682549254D42F08072C2600A6842F0D9
:1034000001020A6010202022D87783F8222000F0E1
:10341000DFFA00F045FA01F073F801F051FF01F016
:10342000BFFF01F0C5F800F0FBF9402105F5886009
:1034300000F01EFD0127164BC36180F82070A861C3
:1034400000F0A6F884F3118862B6AB69114A9A615C
:103450004FF4C4713A46104B009405F59D6000F09E
:103460009FFD039A33680D4981619A4201D105B0ED
:10347000F0BDFDF775FF00BF0008002000ED00E083
:10348000F0ED00E00003FA05001000E0681A0020EB
:103490000004002070030108C1330008F001010896
:1034A00000B5054B83B01B680193044672B6FEF766
:1034B000AFFF024BDC62FEE700080020681A002024
:1034C0002DE9F047DFF890A0224DDAF8003082B005
:1034D000019300F055F9AB6993F8232012B1013A3A
:1034E00083F823205A6ADFF8748001325A6200F0B0
:1034F00047F9AB6AEA6901334245AB6220D0936871
:10350000013B9360EC69A668D6B94FF020092368A7
:10351000E768E660C3F804802368EB6100F0C0F858
:1035200001F0E6F886F311882069B84789F311881D
:1035300001F0C6F800F094F8EC69A368002BE6D01F
:10354000019ADAF800309A4202D102B0BDE8F08761
:10355000FDF706FF681A002000080020841A0020EA
:1035600010B5094C094A236882B001935168536829
:103570005B1A9842FBD8019A23689A4201D102B0A3
:1035800010BDFDF7EDFE00BF00080020001000E0B8
:1035900000B50E4A0E4B116B186883B0019009B943
:1035A000526B4AB1019A1B689A420CD1094803B088
:1035B0005DF804EBFFF774BF019A1B689A4202D1D1
:1035C00003B05DF804FBFDF7CBFE00BF681A0020D6
:1035D00000080020000201080000000000000000B8
:1035E00030B50B4C0B4D236B2A6883B001920BB99D
:1035F000636B13B10848FFF753FF019A2B68012151
:103600009A42616301D103B030BDFDF7A9FE00BF4E
:10361000681A0020000800203002010800000000A5
:1036200030B50C4C0C4D236B2A6883B0019253B912
:10363000636B002B07DD019A2B6800219A426163BE
:1036400005D103B030BD0548FFF72AFFF3E7FDF7CA
:1036500087FE00BF681A0020000800205002010801
:1036600030B50B4C0B4D236B2A6883B0002B0192B5
:1036700001DD636B13B10848FFF712FF019A2B6855
:1036800001219A42616301D103B030BDFDF768FEAC
:10369000681A002000080020400201080000000015
:1036A00030B50C4C0C4D236B2A6883B0002B019273
:1036B0000ADD636B002B07DD019A2B6800219A421B
:1036C000616305D103B030BD0448FFF7E9FEF3E7BD
:1036D000FDF746FE681A002000080020600201087D
:1036E00030B50F4D83B02B680193202383F31188ED
:1036F0000C4C236B002B01DB626B1AB10A48FFF7FD
:10370000CFFE236B01332363002383F31188019AD7
:103710002B689A4201D103B030BDFDF721FE00BFF6
:1037200000080020681A00201002010800000000B4
:1037300030B50F4D83B02B680193202383F311889C
:103740000C4C236B002B01DD626B1AB10A48FFF7AA
:10375000A7FE236B013B2363002383F31188019AA7
:103760002B689A4201D103B030BDFDF7F9FD00BFCF
:1037700000080020681A0020200201080000000054
:1037800000B50F4A0F4B116B186883B000290190E8
:1037900009DB526B002A06DD019A1B689A420CD1A4
:1037A00003B05DF804FB019A1B689A4205D10648F4
:1037B00003B05DF804EBFFF773BEFDF7D1FD00BF6A
:1037C000681A0020000800207002010800000000B4
:1037D00000B50E4A0E4B116B186883B0019049B9C1
:1037E000526B002A06DD019A1B689A420CD103B085
:1037F0005DF804FB019A1B689A4205D1054803B0A5
:103800005DF804EBFFF74CBEFDF7AAFD681A002037
:1038100000080020800201080000000000000000F5
:1038200010B5084A084B116882B0402401910199F3
:10383000126818199142C3E90E4001D102B010BDBF
:10384000FDF78EFD00080020681A0020000000002F
:1038500010B51149114B0A6882B00192DA6B9C6A6B
:103860001460DA6B9C695460DA6B846A9460DA6B7A
:1038700090F820001073DA6B03F5886010328242F2
:1038800028BF03F14002DA63019A0B689A4201D122
:1038900002B010BDFDF764FD00080020681A00208A
:1038A00010B50B4A0B4B116882B04FF0FF340191F9
:1038B00000219962019811685C6203F11C02884240
:1038C000C3E9072201D102B010BDFDF749FD00BFD9
:1038D00000080020681A002000000000000000001E
:1038E0002DE9F041184E82B00546306801900C4633
:1038F00017469846FFF744FF05B3FFB1F4B1C5E999
:1039000003781248C3699A68944204D91B68A41AC0
:103910009A68A242FAD32B605A686A6015605D60AB
:10392000AC609968019D3268091B95424FF0FF34E5
:103930009960446206D102B0BDE8F0810448FFF707
:10394000AFFDDCE7FDF70CFD00080020681A002041
:1039500090020108000000000000000000000000CC
:1039600030B5164D83B004462B680193FFF708FF6E
:10397000ECB1E368BBB12268A06893680199034485
:103980009360D4E900231A6020682B680C4A6568AC
:10399000456099424FF000054FF0FF30E5605062FE
:1039A00009D103B030BD0748FFF77AFDE3E70548CA
:1039B000FFF776FDDDE7FDF7D3FC00BF0008002030
:1039C000681A0020A00201080000000000000000AA
:1039D00000B50A4A0A4B11681B6083B000200191B0
:1039E000019912685B609142C3E90433986002D187
:1039F00003B05DF804FBFDF7B3FC00BF0008002036
:103A0000681A002000000000000000000000000014
:103A100030B5164D83B004462B680193FFF7B0FE16
:103A2000ECB194F82030B3B10F2B14D00022A16870
:103A30000F4B84F820201B689A688A42FBD22360CF
:103A40005A686260146001992A685C60914220465D
:103A500009D103B030BD0748FFF722FDE6E705486E
:103A6000FFF71EFDDDE7FDF77BFC00BF000800202F
:103A7000681A0020B00201080000000000000000E9
:103A800070B5204D82B02B6801930446202383F348
:103A9000118800F015FEFFF7E3FD94F82030072BA6
:103AA00011D8DFE803F0161010230A04100AA66AE2
:103AB000FFF766FEB3680133B360D4E900231A60F0
:103AC000D4E900325A604FF0FF33A3622046FFF77B
:103AD0009FFFFFF7E5FD00F00BFE002383F3118845
:103AE000019A2B689A420BD102B070BDA36A0022E2
:103AF0001A604FF0FF33A3622046FFF789FFE8E723
:103B0000FDF72EFC0008002000000000000000006F
:103B1000F0B5194E194C336883B007460193FFF78F
:103B200057FEA569236885F82070142285F82320A4
:103B30001A68226001215460284683F82010A3618E
:103B4000FFF786FE2946A06900F06AFDEFF30983BE
:103B5000EA69643B9A4202D90948FFF7A1FC019A3D
:103B600033689A4206D1A069294603B0BDE8F04007
:103B7000FCF79EBBFDF7F4FB00080020681A00204C
:103B8000C00201080000000000000000000000006A
:103B9000F0B5154C87B0236805930E460746FFF72E
:103BA00017FE731C18D0114D114AAB693146684697
:103BB000FFF796FE3846FFF7ABFFFFF7E1FD039BEB
:103BC00013B16846FFF7CCFE059A2368A9699A42AB
:103BD000886A06D107B0F0BD3846FFF799FF034D5C
:103BE000F2E7FDF7BDFB00BF00080020681A0020C7
:103BF000813A000800000000000000000000000002
:103C0000F0B51E4D1E4E2B6883B0044601930F463F
:103C1000FFF7DEFDB069A7628368A2689A421DD9EA
:103C2000FFF7F6FE0123074684F82030B461FFF762
:103C30000FFE3946204600F0F3FCEFF30983FA69E2
:103C4000643B9A4214D8019A2B689A4214D139469F
:103C5000204603B0BDE8F040FCF72ABB019A2B6870
:103C60009A4209D1204603B0BDE8F040FFF7D0BE2C
:103C70000448FFF715FCE6E7FDF772FB000800209B
:103C8000681A0020C00201080000000000000000C7
:103C900010B50E490E4B8A69086892F823101C680B
:103CA0008068926882B0019449B9904234BF002084
:103CB0000120019A1B689A4206D102B010BD9042C1
:103CC00094BF00200120F4E7FDF74AFB681A0020AA
:103CD00000080020000000000000000000000000BC
:103CE00070B5184C184E2368A5691A682260546094
:103CF000012283F8202082B01422316885F8232025
:103D00002846A3610191FFF783FE2846FFF7A0FD37
:103D10002946A06900F084FCEFF30983EA69643B5B
:103D20009A4202D90948FFF7BBFB019A33689A42CD
:103D300006D1A069294602B0BDE87040FCF7B8BAC8
:103D4000FDF70EFB681A002000080020C0020108E1
:103D500070B51C4D1C4E2A68AC6913682B6001219C
:103D600082B05D60002082F82010AA613268A168EC
:103D700084F82000019200E01B689A688A42FBD810
:103D800023605A686260204614605C60FFF760FD43
:103D90002146A86900F044FCEFF30983E269643B23
:103DA0009A4202D90948FFF77BFB019A33689A428D
:103DB00006D1A869214602B0BDE87040FCF778BA88
:103DC000FDF7CEFA681A002000080020C0020108A2
:103DD00010B50F4C82B023680193FFF7F9FCFFF791
:103DE000CFFC0C4B1A689B6992689B689A42019AB7
:103DF000236803D89A4208D102B010BD9A4204D178
:103E000002B0BDE81040FFF7A3BFFDF7A9FA00BF5D
:103E100000080020681A00200000000000000000D8
:103E200000B50E4A0E4B9269196892F8232083B0B0
:103E3000019142B1019A1B689A420DD103B05DF81D
:103E400004EBFFF785BF019A1B689A4204D103B0C7
:103E50005DF804EBFFF744BFFDF782FA681A002013
:103E6000000800200000000000000000000000002A
:103E7000F0B51A4A1A4D02610446816083B01423DA
:103E800050692E68616484F82330022700230121E1
:103E9000278484F82210C4E90F3304F16801A36178
:103EA000019604F12C07636204F1500604F130031B
:103EB00060610461C4E90C33E1613046E76254613A
:103EC00000F0B6FA304600F0D3FA019A2B689A4215
:103ED00002D1204603B0F0BDFDF742FA681A002077
:103EE00000080020000000000000000000000000AA
:103EF00010B5094B82B01C680194884203D200F8C7
:103F0000012B8142FBD1019A1B689A4201D102B078
:103F100010BDFDF725FA00BF0008002000000000DA
:103F20002DE9F043184E83B0346801940546DDF85E
:103F300028900C4617469846FFF722FC15B1B4F5B9
:103F4000BC7F19D21148FFF7ABFAA4F164012944F0
:103F5000E960C1F84080EB68019AC3F84490336887
:103F6000E9680B4808669A420CD13946284603B0E6
:103F7000BDE8F043FFF77CBF7F2FE3D8B8F1000F17
:103F8000E3D1DFE7FDF7ECF900080020100301089A
:103F9000C90200080000000000000000000000004E
:103FA0002DE9F04FDFF8A48087B0D8F80040DDF8A5
:103FB0004090059407468A46934600F168060446F9
:103FC000FF2504F8015BA642FBD107EB0A05A542D9
:103FD00004D9552604F8016BA542FBD10393202296
:103FE00082F3118800F03CFBFFF7FAFA039BCDF84F
:103FF00000905A4651463846FFF792FF002104468A
:10400000FFF7FEFDFFF70CFB00F042FB0D4B1A68BB
:104010009A4204D0996993688A689A420BD3002324
:1040200083F31188059AD8F800309A42204606D1C9
:1040300007B0BDE8F08F0448FFF732FAEFE7FDF76D
:104040008FF900BF681A0020D00201080008002084
:1040500030B5184C83B0236801930546202383F3C1
:10406000118800F0FDFAFFF7BBFA15B91248FFF707
:1040700017FA29460820FFF78BFDFFF7D1FA00F069
:1040800007FB0E4B1A689A4204D0996993688A68B4
:104090009A4208D3002383F31188019A23689A4235
:1040A00005D103B030BD0648FFF7FAF9F2E7FDF796
:1040B00057F900BF00080020E0020108681A00203C
:1040C000D002010800000000000000000000000015
:1040D000F0B51C4F83B03B68019304460E46202385
:1040E00083F31188184D00F0BBFAFFF779FAA96A3B
:1040F000331B0C1B9C4219D3FFF792FA00F0C8FA4D
:104100002B68AB4204D0AA699B6892689A4209D393
:10411000002383F31188019A3B689A4230460FD1FD
:1041200003B0F0BD0948FFF7BBF9F1E7741A02D1FB
:104130000748FFF7B5F921460820FFF729FDDBE71F
:10414000FDF70EF900080020681A0020D0020108CF
:10415000E002010800000000000000000000000074
:1041600070B5164B164E9C693268E36AA06282B045
:1041700004F12C05AB42019207D01A68E26218469E
:10418000FFF746FCE36AAB42F7D194F821309B0776
:1041900005D1D4E904231A61D4E904325A610F200D
:1041A000FFF7B6FC019A33689A4205D1054802B080
:1041B000BDE87040FFF774B9FDF7D2F8681A002027
:1041C000000800202003010800000000000000009B
:1041D00030B50C4C83B0236801930546202383F34C
:1041E000118800F03DFAFFF7FBF9019A23689A4223
:1041F00005D1284603B0BDE83040FFF7B1BFFDF759
:10420000AFF800BF00080020000000000000000020
:10421000F0B50D4D0D4E03682A68B76983B00446AA
:10422000019213B10A48FFF73BF927600320BC62F3
:10423000FFF76EFC019A2B68B1699A42886A01D136
:1042400003B0F0BDFDF78CF800080020681A0020CC
:104250003003010800000000000000000000000022
:10426000F0B5124D0368124A83B0044628680190E5
:104270000E46976913B10F48FFF712F966B1276030
:10428000019A2B68BC629A420ED13146032003B0DA
:10429000BDE8F040FFF77CBC019A2B689A424FF0D2
:1042A000FF3001D103B0F0BDFDF75AF8000800203F
:1042B000681A002040030108000000000000000010
:1042C000F0B5124D04682B6883B00193B4B194F833
:1042D0002030032B06460F460CD100233360019A91
:1042E0002B68A7629A420FD1204603B0BDE8F04088
:1042F000FFF78EBB0648FFF7D3F8EEE7019A2B686D
:104300009A4201D103B0F0BDFDF72AF80008002061
:104310006003010800000000000000000000000031
:1043200030B5104A83B01368019381B10E4B019DE3
:104330009B69186044685C60236012684360954222
:104340000DD1042003B0BDE83040FFF721BC019936
:10435000136899424FF0FF3001D103B030BDFCF734
:10436000FFFF00BF00080020681A002000000000C6
:1043700070B5124D04682B6882B0A042019315D02D
:1043800023680360586094F82030042B0E4602D056
:104390000B48FFF785F8019A2B68A6629A420BD169
:1043A000204602B0BDE87040FFF732BB019A2B688F
:1043B0009A4201D102B070BDFCF7D2FF0008002084
:1043C000F0020108000000000000000000000000F2
:1043D0002DE9F041DFF850800468D8F8003082B051
:1043E000A042019313D00F4F05460E4623682B6061
:1043F0005D6094F82030042B02D03846FFF750F867
:10440000A6622046FFF704FB2C68A542EED1019A74
:10441000D8F800309A4202D102B0BDE8F081FCF732
:104420009FFF00BFF002010800080020000000000C
:1044300030B50B4B83B01A6801924FF0FF32026027
:1044400001991A680024002300259142C0E904451F
:10445000C0E90133C36001D103B030BDFCF780FF78
:104460000008002000000000000000000000000024
:1044700000B5084B084A196883B001915168019A48
:104480001B6881609A4202D103B05DF804FBFCF71F
:1044900067FF00BF00080020001000E000000000DF
:1044A000F0B51449144B0A68846883B00192134A2A
:1044B0005B68D2F8A864C2681B1BD0E904450132CE
:1044C0009B1BC26042688360E61845F10007934277
:1044D000C0E9046709D80268934238BF0360019AB3
:1044E0000B689A4203D103B0F0BD4360F7E7FCF7D5
:1044F00037FF00BF00080020001000E0681A00200D
:1045000030B5114D114C2B6889B04FF0FF31079336
:10451000002300226846C4F8A834CDE90133039390
:104520000023CDE904230091FFF7A2FF6846FFF7BF
:10453000B7FF079A2B680299C4F8A8149A4201D1D0
:1045400009B030BDFCF70CFF00080020681A0020FD
:104550002DE97048134E144B326883B001925B68AA
:104560008B60D0E902411B1BD0E90445426814EB83
:10457000030B45F1000C01319342C0E90231C0E95F
:1045800004BC0AD80268934238BF0360019A3368BA
:104590009A4204D103B0BDE870884360F6E7FCF7A7
:1045A000DFFE00BF00080020001000E00000000057
:1045B00030B50D4D0D4C2B6883B004F59760019319
:1045C0000023C4F8B034C4F8B434FFF731FF019AC3
:1045D0002B689A4206D104F59A6003B0BDE83040DA
:1045E000FFF726BFFCF7BCFE00080020681A002079
:1045F00000B50949094A0B6883B001930198D2F8C4
:10460000B034096801338842C2F8B03402D103B033
:104610005DF804FBFCF7A4FE00080020681A0020E7
:1046200070B50D4C0D4A236882B00193019DD2F8FC
:10463000B43424680133A542C2F8B43409D10E461B
:1046400000F1500106F1500002B0BDE87040FFF7E4
:104650007FBFFCF785FE00BF00080020681A00201D
:1046600000B5084B83B01A680192019A1B689A4200
:1046700005D1054803B05DF804EBFFF7F9BEFCF780
:104680006FFE00BF00080020201F00200000000077
:1046900000B5084B83B01A680192019A1B689A42D0
:1046A00005D1054803B05DF804EBFFF7F9BEFCF750
:1046B00057FE00BF00080020201F0020000000005F
:1046C00000B5084B83B01A680192019A1B689A42A0
:1046D00005D1054803B05DF804EBFFF7C9BEFCF750
:1046E0003FFE00BF00080020381F0020000000002F
:1046F00000B5084B83B01A680192019A1B689A4270
:1047000005D1054803B05DF804EBFFF7C9BEFCF71F
:1047100027FE00BF00080020381F00200000000016
:1047200070B51B4D82B004462B680193FFF750F81B
:1047300044B3A3682268002B10DBA24203D01548C3
:10474000FEF7AEFEA368013B002BA3600CDB00204C
:10475000019A2B689A4219D102B070BDA242EED0E4
:10476000013B002BA360F2DA0B4EB3699C621C6024
:1047700062685A60052013606360FFF7C9F9B36986
:10478000986AE5E70348FEF78BFED2E7FCF7E8FD01
:1047900000080020A0030108681A002000000000A3
:1047A00030B5164C83B0236801930546202383F36C
:1047B0001188FFF755FFFEF713FF2846FFF7B0FFFC
:1047C0000546FEF72DFFFFF763FF0D4B1A689A426F
:1047D00004D0996993688A689A4209D3002383F3C5
:1047E0001188019A23689A42284605D103B030BD4A
:1047F0000448FEF755FEF1E7FCF7B2FD0008002083
:10480000681A00209003010800000000000000006A
:1048100030B51C4D83B004462B680193FEF7B0FF02
:104820004CB3A3682268002B0FDBA24203D01648CA
:10483000FEF736FEA3680133002BA3600BDD019A5F
:104840002B689A421BD103B030BDA242EFD0013396
:10485000002BA360F3DC20680199036823602A68B9
:104860005C6091424FF00003836208D103B0BDE861
:104870003040FFF7CDB80448FEF712FED1E7FCF751
:104880006FFD00BF00080020B00301080000000019
:1048900030B50B4D83B02B680193044650B12460B2
:1048A00001992A68646000239142A360236105D1C5
:1048B00003B030BD0348FEF7F3FDF0E7FCF750FD11
:1048C00000080020D00301080000000000000000E4
:1048D000F0B55D4E5D4B32689D6983B00446019230
:1048E000FEF776FF002C00F08480A0682369002882
:1048F00043D0002B40F39780854276D0AA68836826
:104900009A4208D990F820308260062B40D0072BBD
:1049100073D0002B5DD02746234603E09968AA6830
:10492000914233D31B689C42F8D12F607B686B6047
:1049300006201D607D60AC62FFF7EAF8A368AB4219
:1049400002D04348FEF7ACFD2B6CA34202D0404896
:10495000FEF7A6FD2369012B05D1019A33689A421F
:104960006FD103B0F0BD019A33689A4269D13848DB
:1049700003B0BDE8F040FEF793BD002B58D10133E2
:10498000A56023612B6CE3602C64E6E71F46CCE74F
:10499000D0E900231A60D0E900325A60876A3B46AA
:1049A00003E099688268914247D31B689F42F8D11F
:1049B00007607B68436018607860836AAA689868BB
:1049C00083689342A7D290F820308260062B9ED154
:1049D000DEE7D0E90023012180F820101A60D0E939
:1049E00000325A60FFF714F895E723690133236119
:1049F000B3E71748FEF754FD77E7D0E900231A60C4
:104A0000D0E900325A60876A3B4603E099688268C1
:104A1000914214D31B689F42F8D107607B684360C2
:104A20001860786077E70A48FEF73AFDA06863E708
:104A30000748FEF735FD2369A1E71F46B8E71F4683
:104A4000EBE7FCF78DFC00BF00080020681A00208F
:104A5000E00301080000000000000000000000006A
:104A600030B5154C83B0236801930546202383F3AA
:104A70001188FFF7F5FDFEF7B3FD2846FFF728FF85
:104A8000FEF7CEFDFFF704FE0C4B1A689A4204D0E5
:104A9000996993688A689A4208D3002383F311883E
:104AA000019A23689A4205D103B030BD0448FEF74D
:104AB000F7FCF2E7FCF754FC00080020681A00201D
:104AC000C00301080000000000000000000000001A
:104AD0002DE9F043DFF800813C4FD8F80030BE6983
:104AE00083B005460193002864D0202383F3118806
:104AF000FFF7B6FDFEF774FD336C002B5ED09B68AC
:104B0000B34202D03248FEF7CBFC2B69002B49DDC3
:104B1000013B2B615BBB336CAB4202D02C48FEF7F0
:104B2000BFFCEB683364FEF753FE2B689D423ED01A
:104B3000D6E910495CB1FEF74BFE23689C4203D0D6
:104B40009B68994538BF9946E468002CF3D1C6F8B4
:104B500008902B6801222A611A682A605560AB60B0
:104B60001A6CEA6018461D640021FFF749F8FEF749
:104B700057FDFFF78DFD3B68BB4204D0BA699B68C7
:104B800092689A420AD3002383F31188019AD8F8D5
:104B900000309A4217D103B0BDE8F0830D48FEF70C
:104BA0007FFCF0E70A48FEF77BFC2B69B0E70023A7
:104BB000AB60DCE70648FEF773FC96E70448FEF7B7
:104BC0006FFC336C9BE7FCF7CBFB00BF681A00203F
:104BD000F0030108C00301080008002000000000E5
:104BE00070B5114E82B0044633680193FEF7C8FDDC
:104BF0009CB12068A0420AD06FF0010503682360D1
:104C00005C60FEF705FF85622068A042F6D1019A3C
:104C100033689A4205D102B070BD0448FEF740FCEB
:104C2000E7E7FCF79DFB00BF000800201004010827
:104C300030B5164C83B0236801930546202383F3D7
:104C40001188FFF70DFDFEF7CBFC2846FFF7C8FFE4
:104C5000FFF7BEF8FEF7E4FCFFF71AFD0C4B1A68ED
:104C60009A4204D0996993688A689A4208D30023CB
:104C700083F31188019A23689A4205D103B030BDAD
:104C80000448FEF70DFCF2E7FCF76AFB0008002081
:104C9000681A002000040108000000000000000065
:104CA0002DE9F0431D4F83B03C68019491460C46BA
:104CB0009846064660B359B3202383F31188FFF763
:104CC000CFFC174DFEF78CFC336823603460AB6972
:104CD00063600023C4E90338C4F80890FEF7A0FC21
:104CE000FFF7D6FC2B68AB4204D0AA699B68926898
:104CF0009A4209D3002383F31188019A3B689A42B0
:104D00000AD103B0BDE8F0830648FEF7C9FBF1E71E
:104D10000548FEF7C5FBCFE7FCF722FB00080020A3
:104D2000681A002030040108400401080000000057
:104D300070B5184E82B00446336801930D46FEF7F5
:104D40001FFD0CB3E16B94F8203029430A2BE1637B
:104D500016D00B2B05D0019A33689A4218D102B0B5
:104D600070BDA36A8B43F6D1019A336800219A4241
:104D7000A1620DD1204602B0BDE87040FEF748BEEA
:104D8000A36A1942F0D1E6E70348FEF789FBD9E7A9
:104D9000FCF7E6FA0008002080040108000000008B
:104DA000F0B5134F83B006463B6801930D46FEF7FE
:104DB000E7FCB6B13468A6420DD0E3682B43E3604C
:104DC00015B12269134203D0D4E90101FFF7B0FF06
:104DD0002468A642F1D1019A3B689A4205D103B0FA
:104DE000F0BD0448FEF75CFBE4E7FCF7B9FA00BF4E
:104DF000000800206004010800000000000000001E
:104E000070B50C4CC16082B0266801960A440060FF
:104E1000019E02612268069D4060C0E9051196422C
:104E20004FF00001C3618160056201D102B070BD25
:104E3000FCF796FA000800200000000000000000C7
:104E400070B5164D82B004462B6801930E46FEF7EE
:104E500097FCFEF795FCD4E905239A42A36816D087
:104E60000133511CA36061611670D4E904329A4287
:104E70000AD220460021FFF77BFA0020019A2B6816
:104E80009A4209D102B070BDE3686361F1E7002B7B
:104E9000E6D06FF00300F1E7FCF762FA00080020AB
:104EA000F0B5234F83B03B68019304460E462023A0
:104EB00083F31188FFF7D4FBFEF792FBE36943B15C
:104EC0002046984705E031462046FFF729FA051E9F
:104ED00010DBFEF755FCA368002BF4D0A169206914
:104EE0004A1C013B8242A360A26128BFE3680D789F
:104EF00028BFA361FEF794FBFFF7CAFB0D4B1A68AE
:104F00009A4204D0996993688A689A4209D3002327
:104F100083F31188019A3B689A42284605D103B071
:104F2000F0BD0548FEF7BCFAF1E7FCF719FA00BF3F
:104F300000080020681A002090040108000000000A
:104F40002DE9F04FDFF8F490044685B0D9F8000061
:104F500003908A461D46D4F81C809346002A60D0F0
:104F6000202383F311880193FFF77AFBFEF738FBC8
:104F70002F4E0027B8F1000F07D02046C04704E0AD
:104F800029462046FFF7CCF960BBFEF7F9FBA36882
:104F9000002BF5D0A269013B511CA161A3601378DD
:104FA0000AF8013B2369A2699A4224BFE368A3611E
:104FB000FEF736FBFFF76CFB3368B34204D0B269EF
:104FC0009B6892689A4228D3002383F311880137A3
:104FD000BB4519D0019B83F31188FFF741FBFEF716
:104FE000FFFAC7E7FEF71CFBFFF752FB3368B3423B
:104FF00007D0B2699B6892689A4202D20D48FEF7C8
:105000004FFA002383F31188039AD9F800309A42AB
:1050100038460AD105B0BDE8F08F0648FEF740FAE1
:10502000D2E70548FEF73CFA9AE7FCF799F900BF8A
:10503000681A002090040108A0040108000800205C
:1050400070B50B4D82602E68C16082B0C0E900006F
:1050500001960A44019E02612A68069C9642C0E9B4
:105060000511C0E9073401D102B070BDFCF778F931
:105070000008002000000000000000000000000008
:105080002DE9F0412E4F82B03B68019304468846DB
:105090001646202383F31188FFF7E2FAFEF7A0FA01
:1050A00005E031462046FFF73BF9051E2DDBFEF7F4
:1050B00067FBA368002BF4D06269013B511C61615E
:1050C000A36082F80080D4E904329A4224BFE368E6
:1050D0006361E3690BB120469847FEF7A1FAFFF739
:1050E000D7FA184B1A689A4204D0996993688A686B
:1050F0009A421ED3002585F31188019A3B689A4293
:1051000028461AD102B0BDE8F081FEF789FAFFF710
:10511000BFFA0C4B1A689A4207D0996993688A685B
:105120009A4202D20848FEF7BBF9002383F31188A4
:10513000E3E70548FEF7B4F9DCE7FCF711F900BF37
:1051400000080020681A00209004010800000000F8
:1051500070B5154E82B0044633680193FEF710FB1C
:10516000FEF70EFBD4E905329342A36815D02069FF
:10517000511C0133A360A161814215780AD22046F7
:105180000021FFF7F5F82846019A33689A4209D1C1
:1051900002B070BDE368A361F1E7002BE7D06FF0C8
:1051A0000200F1E7FCF7DCF8000800200000000036
:1051B0002DE9F04F04463B48D4F81C90006885B0B8
:1051C0000D46039001931646002A61D04FF0200A45
:1051D0008AF31188FFF744FAFEF702FA4FF000084D
:1051E000314FC346FEF7CCFAA368002B32D0626978
:1051F000013B511C6161A3602B781370D4E9043228
:105200009A4224BFE36863610135B9F1000F01D010
:105210002046C847FEF704FAFFF73AFA3B68BB425C
:1052200007D0BA699B6892689A4202D21F48FEF77B
:1052300037F98BF31188013E08F101081FD08AF37A
:105240001188FFF70DFAFEF7CBF9FEF799FAA3687C
:10525000002BCCD101992046FFF762F80028C1D07D
:10526000FEF7DEF9FFF714FA3B68BB4204D0BA69D7
:105270009B6892689A420FD3002383F31188094BED
:10528000039A1B689A4240460AD105B0BDE8F08FE8
:105290000748FEF705F999E70448FEF701F9EBE73F
:1052A000FCF75EF800080020681A0020900401084E
:1052B000B004010800000000000000000000000031
:1052C00030B50B490B4A0B680B4D0C4C83B022F0E8
:1052D0000702019301980A4B09682A6023F007032B
:1052E0008842236001D103B030BDFCF739F800BF1C
:1052F000000800204F290020DC200020D8200020BA
:10530000000002200000000000000000000000007B
:1053100070B51C4E82B0336801930446202383F39A
:105320001188FFF79DF9FEF75BF9FEF729FA164A97
:10533000164B15681B68E01D20F007005B1B9842A8
:105340009ABF401910600025FEF76AF9FFF7A0F92F
:105350000F4B1A689A4204D0996993688A689A42F6
:1053600009D3002383F31188019A33689A422846AF
:1053700005D102B070BD0748FEF792F8F1E7FBF7E0
:10538000EFFF00BF00080020DC200020D820002014
:10539000681A0020D004010800000000000000008E
:1053A00000B50B4B0B481A6883B0019201991A683B
:1053B000094B036091424FF00003C0E9023305D16D
:1053C000103003B05DF804EBFFF762BAFBF7C8FFDB
:1053D00000080020E0200020115300080000000019
:1053E00080B50D4A0D4982B000AF13687B604B68F1
:1053F00023F001034B60EFF30983683383F30988DB
:10540000002383F3118879681368994202D1083721
:10541000BD4680BDFBF7A4FF0008002030EF00E090
:10542000B0B5194C82B000AF23687B60202383F3B2
:105430001188164B5B6813F4006308D183F311885D
:105440007A6823689A421DD10837BD46B0BDF1EE97
:10545000103AEFF309854FF080720D4B45F84C2C54
:10546000DB6845F8083CA5F1680383F30988FEF77B
:105470000FFC18B1074B45F8503CE1E7064B45F8E7
:10548000503CDDE7FBF76CFF0008002000ED00E07A
:1054900030EF00E0E1020008F40200080000000024
:1054A00010B5184C82B02368019302F011FB164826
:1054B00003F0A6FF00F0D4F800F0EAF900F030FAAB
:1054C00000F05EFA00F08CFA00F0BAFA00F040FC4E
:1054D00000F06EFC01F0BCFA01F0C2F901F090FBA3
:1054E00001F0D6FB01F07CFB05F01AFE019A23685F
:1054F0009A4204D102B0BDE8104001F0B1BBFBF705
:105500002FFF00BF00080020D00A010800000000A3
:10551000F0B51A4D83B02B68019391420E461446A4
:10552000074619D38B1A1F2B16D806F01F03581CD9
:105530006209012376098340B24203F1FF3304F08C
:105540001F0457F822000BD31840E040019A2B6843
:105550009A4210D103B0F0BD0948FDF7A1FFE4E77E
:1055600057F82610C4F120020B4020FA04F403FA85
:1055700002F02043EAE7FBF7F3FE00BF000800203B
:10558000E00401080000000000000000000000002E
:10559000F0B51D4E83B033680193054670B37E228B
:1055A0007F212846FFF7B4FF80B1012806D00020F4
:1055B000019A33689A4225D103B0F0BD28463022C3
:1055C0004521FFF7A5FF01308002F1E73E22492186
:1055D0002846FFF79DFF2F22044631212846FFF77A
:1055E00097FF5022074653212846FFF791FF0134C9
:1055F00002370938BC4004FA00F0D9E70348FDF748
:105600004FFFCCE7FBF7ACFE0008002000050108C7
:10561000F0B5104D83B02B680193044698B194F80F
:10562000D63094F8D770019994F8D4602A6894F829
:10563000D5001B0403EB07633344914203EB0020C6
:1056400005D103B0F0BD0448FDF72AFFE7E7FBF7FB
:1056500087FE00BF000800202005010800000000B0
:1056600000B5074B83B01A680192019A1B689A42F1
:1056700004D103B05DF804EB02F0EABAFBF770FE68
:1056800000080020000000000000000000000000F2
:1056900000B50C4B83B01A68019201220270019987
:1056A0001A6800239142C0E90133C0E90333436122
:1056B00005D1183003B05DF804EBFFF7E9B8FBF74C
:1056C0004FFE00BF000800200000000000000000A6
:1056D00070B51D4D82B02B6801930E46044668B329
:1056E000202383F31188FEF7BBFFFDF779FF2378B2
:1056F000013B012B02D91548FDF7D2FE204666601A
:1057000002F0F6FA02232370FDF78AFFFEF7C0FFCE
:105710000F4B1A689A4204D0996993688A689A4232
:1057200008D3002383F31188019A2B689A4209D188
:1057300002B070BD0748FDF7B3FEF2E70348FDF77E
:10574000AFFECDE7FBF70CFE000800205005010876
:10575000681A002040050108000000000000000059
:105760002DE9F041174D82B00446286801900E469D
:1057700090461F46FEF704F83CB136B1B8F1000F71
:1057800003D0012F04D0FB0702D50F48FDF788FE98
:105790002378022B05D0043B012B02D90A48FDF7E0
:1057A0007FFE03232370019A2B6826619A42C4E985
:1057B000028705D1204602B0BDE8F04102F018BBD7
:1057C000FBF7CEFD00080020600501080000000086
:1057D0002DE9F041184C82B02568019598460546A0
:1057E0000E461746202383F31188FEF739FFFDF795
:1057F000F7FE43463A4631462846FFF7B1FFFDF72C
:105800000FFFFEF745FF0D4B1A689A4204D09969C5
:1058100093688A689A4209D3002383F31188019A16
:1058200023689A4206D102B0BDE8F0810448FDF732
:1058300037FEF1E7FBF794FD00080020681A00200E
:10584000400501080000000000000000000000000A
:1058500030B50B4C83B023680193054650B1019AD3
:1058600023689A420AD105F1180003B0BDE8304020
:10587000FFF7F6B80348FDF713FEF0E7FBF770FDFE
:105880000008002080050108000000000000000062
:1058900000B5074B83B01A680192019A1B689A42BF
:1058A00004D103B05DF804EB03F0F2B8FBF758FD48
:1058B00000080020000000000000000000000000C0
:1058C00030B5134B83B01A68019201220270019C1B
:1058D0001968002200F1180300F11C054260836181
:1058E00000F1200200F12403C561026200F12805E5
:1058F00000F1080243628C4200F110038562C0E9A6
:105900000222C0E9043301D103B030BDFBF728FD0A
:10591000000800200000000000000000000000005F
:1059200000B5074B83B01A680192019A1B689A422E
:1059300004D103B05DF804EB03F042BDFBF710FDAA
:10594000000800200000000000000000000000002F
:1059500000B50A4B83B01A680192012202700199C6
:105960001A6800239142C0E9043305D1183003B00E
:105970005DF804EBFEF78CBFFBF7F2FC000800209B
:1059800000B5074B83B01A680192019A1B689A42CE
:1059900004D103B05DF804EB03F09AB8FBF7E0FC28
:1059A00000080020000000000000000000000000CF
:1059B00000B5084B83B01A68019201220270019A67
:1059C0001B6800219A42416002D103B05DF804FBDC
:1059D000FBF7C6FC000800200000000000000000EB
:1059E00000B5074B83B01A680192019A1B689A426E
:1059F00004D103B05DF804EB04F012BFFBF7B0FC78
:105A0000000800200000000000000000000000006E
:105A100000B5084B83B01A68019201220270019A06
:105A20001B6800219A42416002D103B05DF804FB7B
:105A3000FBF796FC000800200000000000000000BA
:105A400000B5074B83B01A680192019A1B689A420D
:105A500004D103B05DF804EB03F0CABFFBF780FC90
:105A6000000800200000000000000000000000000E
:105A700000B50A4B83B01A68019201220270019AA4
:105A80001B6800219A42416005D10C3003B05DF8DB
:105A900004EBFEF7FDBEFBF763FC00BF000800202F
:105AA00070B51F4D82B02B6801930E46044680B33B
:105AB00079B323785A1E012A04D9052B02D019483C
:105AC000FDF7EEFC202383F31188FEF7C9FDFDF7F7
:105AD00087FD2046666003F0B3FF02232370FDF7C5
